{"abi":[{"type":"constructor","inputs":[{"name":"contractURI_","type":"string","internalType":"string"}],"stateMutability":"nonpayable"},{"type":"function","name":"AUTHORIZED_ROLE","inputs":[],"outputs":[{"name":"","type":"bytes32","internalType":"bytes32"}],"stateMutability":"view"},{"type":"function","name":"DEFAULT_ADMIN_ROLE","inputs":[],"outputs":[{"name":"","type":"bytes32","internalType":"bytes32"}],"stateMutability":"view"},{"type":"function","name":"addAuthorizedAddress","inputs":[{"name":"authorizedAddress","type":"address","internalType":"address"}],"outputs":[],"stateMutability":"nonpayable"},{"type":"function","name":"airdrop","inputs":[{"name":"_player","type":"address","internalType":"address"}],"outputs":[],"stateMutability":"nonpayable"},{"type":"function","name":"approve","inputs":[{"name":"to","type":"address","internalType":"address"},{"name":"tokenId","type":"uint256","internalType":"uint256"}],"outputs":[],"stateMutability":"nonpayable"},{"type":"function","name":"balanceOf","inputs":[{"name":"owner","type":"address","internalType":"address"}],"outputs":[{"name":"","type":"uint256","internalType":"uint256"}],"stateMutability":"view"},{"type":"function","name":"contractURI","inputs":[],"outputs":[{"name":"","type":"string","internalType":"string"}],"stateMutability":"view"},{"type":"function","name":"getApproved","inputs":[{"name":"tokenId","type":"uint256","internalType":"uint256"}],"outputs":[{"name":"","type":"address","internalType":"address"}],"stateMutability":"view"},{"type":"function","name":"getBoardlessTokens","inputs":[],"outputs":[{"name":"","type":"uint256[]","internalType":"uint256[]"}],"stateMutability":"view"},{"type":"function","name":"getRoleAdmin","inputs":[{"name":"role","type":"bytes32","internalType":"bytes32"}],"outputs":[{"name":"","type":"bytes32","internalType":"bytes32"}],"stateMutability":"view"},{"type":"function","name":"getTotalPrice","inputs":[{"name":"quantity","type":"uint256","internalType":"uint256"}],"outputs":[{"name":"totalPrice","type":"uint256","internalType":"uint256"}],"stateMutability":"view"},{"type":"function","name":"grantRole","inputs":[{"name":"role","type":"bytes32","internalType":"bytes32"},{"name":"account","type":"address","internalType":"address"}],"outputs":[],"stateMutability":"nonpayable"},{"type":"function","name":"hasAuthorizedAddress","inputs":[{"name":"authorizedAddress","type":"address","internalType":"address"}],"outputs":[{"name":"","type":"bool","internalType":"bool"}],"stateMutability":"view"},{"type":"function","name":"hasRole","inputs":[{"name":"role","type":"bytes32","internalType":"bytes32"},{"name":"account","type":"address","internalType":"address"}],"outputs":[{"name":"","type":"bool","internalType":"bool"}],"stateMutability":"view"},{"type":"function","name":"isApprovedForAll","inputs":[{"name":"owner","type":"address","internalType":"address"},{"name":"operator","type":"address","internalType":"address"}],"outputs":[{"name":"","type":"bool","internalType":"bool"}],"stateMutability":"view"},{"type":"function","name":"mintNFT","inputs":[{"name":"quantity","type":"uint256","internalType":"uint256"}],"outputs":[],"stateMutability":"payable"},{"type":"function","name":"mintPrice","inputs":[],"outputs":[{"name":"","type":"uint256","internalType":"uint256"}],"stateMutability":"view"},{"type":"function","name":"name","inputs":[],"outputs":[{"name":"","type":"string","internalType":"string"}],"stateMutability":"view"},{"type":"function","name":"owner","inputs":[],"outputs":[{"name":"","type":"address","internalType":"address"}],"stateMutability":"view"},{"type":"function","name":"ownerOf","inputs":[{"name":"tokenId","type":"uint256","internalType":"uint256"}],"outputs":[{"name":"","type":"address","internalType":"address"}],"stateMutability":"view"},{"type":"function","name":"removeAuthorizedAddress","inputs":[{"name":"authorizedAddress","type":"address","internalType":"address"}],"outputs":[],"stateMutability":"nonpayable"},{"type":"function","name":"renounceOwnership","inputs":[],"outputs":[],"stateMutability":"nonpayable"},{"type":"function","name":"renounceRole","inputs":[{"name":"role","type":"bytes32","internalType":"bytes32"},{"name":"callerConfirmation","type":"address","internalType":"address"}],"outputs":[],"stateMutability":"nonpayable"},{"type":"function","name":"revokeRole","inputs":[{"name":"role","type":"bytes32","internalType":"bytes32"},{"name":"account","type":"address","internalType":"address"}],"outputs":[],"stateMutability":"nonpayable"},{"type":"function","name":"royaltyInfo","inputs":[{"name":"","type":"uint256","internalType":"uint256"},{"name":"salePrice","type":"uint256","internalType":"uint256"}],"outputs":[{"name":"receiver","type":"address","internalType":"address"},{"name":"royaltyAmount","type":"uint256","internalType":"uint256"}],"stateMutability":"view"},{"type":"function","name":"safeTransferFrom","inputs":[{"name":"from","type":"address","internalType":"address"},{"name":"to","type":"address","internalType":"address"},{"name":"tokenId","type":"uint256","internalType":"uint256"}],"outputs":[],"stateMutability":"nonpayable"},{"type":"function","name":"safeTransferFrom","inputs":[{"name":"from","type":"address","internalType":"address"},{"name":"to","type":"address","internalType":"address"},{"name":"tokenId","type":"uint256","internalType":"uint256"},{"name":"data","type":"bytes","internalType":"bytes"}],"outputs":[],"stateMutability":"nonpayable"},{"type":"function","name":"setApprovalForAll","inputs":[{"name":"operator","type":"address","internalType":"address"},{"name":"approved","type":"bool","internalType":"bool"}],"outputs":[],"stateMutability":"nonpayable"},{"type":"function","name":"setContractURI","inputs":[{"name":"contractURI_","type":"string","internalType":"string"}],"outputs":[],"stateMutability":"nonpayable"},{"type":"function","name":"setMintPrice","inputs":[{"name":"_newMintPrice","type":"uint256","internalType":"uint256"}],"outputs":[],"stateMutability":"nonpayable"},{"type":"function","name":"setRoyaltyInfo","inputs":[{"name":"recipient","type":"address","internalType":"address"},{"name":"percentage","type":"uint256","internalType":"uint256"}],"outputs":[],"stateMutability":"nonpayable"},{"type":"function","name":"setTokenURI","inputs":[{"name":"_tokenId","type":"uint256","internalType":"uint256"},{"name":"_uri","type":"string","internalType":"string"}],"outputs":[],"stateMutability":"nonpayable"},{"type":"function","name":"supportsInterface","inputs":[{"name":"interfaceId","type":"bytes4","internalType":"bytes4"}],"outputs":[{"name":"","type":"bool","internalType":"bool"}],"stateMutability":"view"},{"type":"function","name":"symbol","inputs":[],"outputs":[{"name":"","type":"string","internalType":"string"}],"stateMutability":"view"},{"type":"function","name":"tokenURI","inputs":[{"name":"_tokenId","type":"uint256","internalType":"uint256"}],"outputs":[{"name":"","type":"string","internalType":"string"}],"stateMutability":"view"},{"type":"function","name":"tokenUri","inputs":[{"name":"","type":"uint256","internalType":"uint256"}],"outputs":[{"name":"","type":"string","internalType":"string"}],"stateMutability":"view"},{"type":"function","name":"transferFrom","inputs":[{"name":"from","type":"address","internalType":"address"},{"name":"to","type":"address","internalType":"address"},{"name":"tokenId","type":"uint256","internalType":"uint256"}],"outputs":[],"stateMutability":"nonpayable"},{"type":"function","name":"transferOwnership","inputs":[{"name":"newOwner","type":"address","internalType":"address"}],"outputs":[],"stateMutability":"nonpayable"},{"type":"function","name":"withdraw","inputs":[],"outputs":[],"stateMutability":"nonpayable"},{"type":"event","name":"AirdropMint","inputs":[{"name":"recipient","type":"address","indexed":true,"internalType":"address"},{"name":"tokenId","type":"uint256","indexed":true,"internalType":"uint256"}],"anonymous":false},{"type":"event","name":"Approval","inputs":[{"name":"owner","type":"address","indexed":true,"internalType":"address"},{"name":"approved","type":"address","indexed":true,"internalType":"address"},{"name":"tokenId","type":"uint256","indexed":true,"internalType":"uint256"}],"anonymous":false},{"type":"event","name":"ApprovalForAll","inputs":[{"name":"owner","type":"address","indexed":true,"internalType":"address"},{"name":"operator","type":"address","indexed":true,"internalType":"address"},{"name":"approved","type":"bool","indexed":false,"internalType":"bool"}],"anonymous":false},{"type":"event","name":"OwnershipTransferred","inputs":[{"name":"previousOwner","type":"address","indexed":true,"internalType":"address"},{"name":"newOwner","type":"address","indexed":true,"internalType":"address"}],"anonymous":false},{"type":"event","name":"RoleAdminChanged","inputs":[{"name":"role","type":"bytes32","indexed":true,"internalType":"bytes32"},{"name":"previousAdminRole","type":"bytes32","indexed":true,"internalType":"bytes32"},{"name":"newAdminRole","type":"bytes32","indexed":true,"internalType":"bytes32"}],"anonymous":false},{"type":"event","name":"RoleGranted","inputs":[{"name":"role","type":"bytes32","indexed":true,"internalType":"bytes32"},{"name":"account","type":"address","indexed":true,"internalType":"address"},{"name":"sender","type":"address","indexed":true,"internalType":"address"}],"anonymous":false},{"type":"event","name":"RoleRevoked","inputs":[{"name":"role","type":"bytes32","indexed":true,"internalType":"bytes32"},{"name":"account","type":"address","indexed":true,"internalType":"address"},{"name":"sender","type":"address","indexed":true,"internalType":"address"}],"anonymous":false},{"type":"event","name":"Transfer","inputs":[{"name":"from","type":"address","indexed":true,"internalType":"address"},{"name":"to","type":"address","indexed":true,"internalType":"address"},{"name":"tokenId","type":"uint256","indexed":true,"internalType":"uint256"}],"anonymous":false},{"type":"event","name":"URIUpdated","inputs":[{"name":"_uri","type":"string","indexed":false,"internalType":"string"},{"name":"_tokenId","type":"uint256","indexed":true,"internalType":"uint256"}],"anonymous":false},{"type":"error","name":"AccessControlBadConfirmation","inputs":[]},{"type":"error","name":"AccessControlUnauthorizedAccount","inputs":[{"name":"account","type":"address","internalType":"address"},{"name":"neededRole","type":"bytes32","internalType":"bytes32"}]},{"type":"error","name":"ERC721IncorrectOwner","inputs":[{"name":"sender","type":"address","internalType":"address"},{"name":"tokenId","type":"uint256","internalType":"uint256"},{"name":"owner","type":"address","internalType":"address"}]},{"type":"error","name":"ERC721InsufficientApproval","inputs":[{"name":"operator","type":"address","internalType":"address"},{"name":"tokenId","type":"uint256","internalType":"uint256"}]},{"type":"error","name":"ERC721InvalidApprover","inputs":[{"name":"approver","type":"address","internalType":"address"}]},{"type":"error","name":"ERC721InvalidOperator","inputs":[{"name":"operator","type":"address","internalType":"address"}]},{"type":"error","name":"ERC721InvalidOwner","inputs":[{"name":"owner","type":"address","internalType":"address"}]},{"type":"error","name":"ERC721InvalidReceiver","inputs":[{"name":"receiver","type":"address","internalType":"address"}]},{"type":"error","name":"ERC721InvalidSender","inputs":[{"name":"sender","type":"address","internalType":"address"}]},{"type":"error","name":"ERC721NonexistentToken","inputs":[{"name":"tokenId","type":"uint256","internalType":"uint256"}]},{"type":"error","name":"OwnableInvalidOwner","inputs":[{"name":"owner","type":"address","internalType":"address"}]},{"type":"error","name":"OwnableUnauthorizedAccount","inputs":[{"name":"account","type":"address","internalType":"address"}]},{"type":"error","name":"ReentrancyGuardReentrantCall","inputs":[]}],"bytecode":{"object":"0x60806040526103e8600e553480156200001757600080fd5b5060405162002c9f38038062002c9f8339810160408190526200003a9162000179565b604080518082018252600f8082526e4f6e636861696e204c6f746572696160881b602080840182905284518086019095529184529083015233916000620000828382620002df565b506001620000918282620002df565b5050506001600160a01b038116620000c357604051631e4fbdf760e01b81526000600482015260240160405180910390fd5b620000ce8162000111565b506001600855600a620000e28282620002df565b5050600654600b80546001600160a01b0319166001600160a01b039092169190911790556001600c55620003ab565b600680546001600160a01b038381166001600160a01b0319831681179093556040519116919082907f8be0079c531659141344cd1fd0a4f28419497f9722a3daafe3b4186f6b6457e090600090a35050565b634e487b7160e01b600052604160045260246000fd5b600060208083850312156200018d57600080fd5b82516001600160401b0380821115620001a557600080fd5b818501915085601f830112620001ba57600080fd5b815181811115620001cf57620001cf62000163565b604051601f8201601f19908116603f01168101908382118183101715620001fa57620001fa62000163565b8160405282815288868487010111156200021357600080fd5b600093505b8284101562000237578484018601518185018701529285019262000218565b600086848301015280965050505050505092915050565b600181811c908216806200026357607f821691505b6020821081036200028457634e487b7160e01b600052602260045260246000fd5b50919050565b601f821115620002da576000816000526020600020601f850160051c81016020861015620002b55750805b601f850160051c820191505b81811015620002d657828155600101620002c1565b5050505b505050565b81516001600160401b03811115620002fb57620002fb62000163565b62000313816200030c84546200024e565b846200028a565b602080601f8311600181146200034b5760008415620003325750858301515b600019600386901b1c1916600185901b178555620002d6565b600085815260208120601f198616915b828110156200037c578886015182559484019460019091019084016200035b565b50858210156200039b5787850151600019600388901b60f8161c191681555b5050505050600190811b01905550565b6128e480620003bb6000396000f3fe6080604052600436106102a05760003560e01c8063707129391161016e578063b88d4fde116100cb578063e8a3d4851161007f578063f2fde38b11610064578063f2fde38b14610794578063f4a0a528146107b4578063f6468251146107d457600080fd5b8063e8a3d48514610736578063e985e9c51461074b57600080fd5b8063ca7dd375116100b0578063ca7dd375146106d6578063d547741f146106f6578063e2e784d51461071657600080fd5b8063b88d4fde14610696578063c87b56dd146106b657600080fd5b8063926427441161012257806395d89b411161010757806395d89b411461064c578063a217fddf14610661578063a22cb4651461067657600080fd5b80639264274414610619578063938e3d7b1461062c57600080fd5b8063715018a611610153578063715018a6146105a05780638da5cb5b146105b557806391d14854146105d357600080fd5b8063707129391461056057806370a082311461058057600080fd5b80632a55205a1161021c57806342f1181e116101d057806363759d4c116101b557806363759d4c146105085780636817c76c146105285780636f26d9ae1461053e57600080fd5b806342f1181e146104c85780636352211e146104e857600080fd5b806336568abe1161020157806336568abe146104735780633ccfd60b1461049357806342842e0e146104a857600080fd5b80632a55205a146104145780632f2ff15d1461045357600080fd5b8063162094c41161027357806321860a051161025857806321860a051461039657806323b872dd146103b6578063248a9ca3146103d657600080fd5b8063162094c4146103565780631675f4551461037657600080fd5b806301ffc9a7146102a557806306fdde03146102da578063081812fc146102fc578063095ea7b314610334575b600080fd5b3480156102b157600080fd5b506102c56102c036600461217a565b610808565b60405190151581526020015b60405180910390f35b3480156102e657600080fd5b506102ef610864565b6040516102d191906121fb565b34801561030857600080fd5b5061031c61031736600461220e565b6108f6565b6040516001600160a01b0390911681526020016102d1565b34801561034057600080fd5b5061035461034f366004612243565b61091f565b005b34801561036257600080fd5b50610354610371366004612350565b61092e565b34801561038257600080fd5b506102ef61039136600461220e565b610b08565b3480156103a257600080fd5b506103546103b1366004612397565b610ba2565b3480156103c257600080fd5b506103546103d13660046123b2565b610ca7565b3480156103e257600080fd5b506104066103f136600461220e565b60009081526007602052604090206001015490565b6040519081526020016102d1565b34801561042057600080fd5b5061043461042f3660046123ee565b610d64565b604080516001600160a01b0390931683526020830191909152016102d1565b34801561045f57600080fd5b5061035461046e366004612410565b610d97565b34801561047f57600080fd5b5061035461048e366004612410565b610dbc565b34801561049f57600080fd5b50610354610e08565b3480156104b457600080fd5b506103546104c33660046123b2565b610f7f565b3480156104d457600080fd5b506103546104e3366004612397565b610f9a565b3480156104f457600080fd5b5061031c61050336600461220e565b610fdf565b34801561051457600080fd5b506102c5610523366004612397565b610fea565b34801561053457600080fd5b50610406600e5481565b34801561054a57600080fd5b5061055361102a565b6040516102d1919061243c565b34801561056c57600080fd5b5061035461057b366004612397565b611081565b34801561058c57600080fd5b5061040661059b366004612397565b6110e8565b3480156105ac57600080fd5b50610354611149565b3480156105c157600080fd5b506006546001600160a01b031661031c565b3480156105df57600080fd5b506102c56105ee366004612410565b60009182526007602090815260408084206001600160a01b0393909316845291905290205460ff1690565b61035461062736600461220e565b61115d565b34801561063857600080fd5b50610354610647366004612480565b6112d2565b34801561065857600080fd5b506102ef611310565b34801561066d57600080fd5b50610406600081565b34801561068257600080fd5b506103546106913660046124b5565b61131f565b3480156106a257600080fd5b506103546106b13660046124f1565b61132a565b3480156106c257600080fd5b506102ef6106d136600461220e565b611341565b3480156106e257600080fd5b506104066106f136600461220e565b6113e3565b34801561070257600080fd5b50610354610711366004612410565b6114ca565b34801561072257600080fd5b50610354610731366004612243565b6114ef565b34801561074257600080fd5b506102ef611563565b34801561075757600080fd5b506102c561076636600461256d565b6001600160a01b03918216600090815260056020908152604080832093909416825291909152205460ff1690565b3480156107a057600080fd5b506103546107af366004612397565b611572565b3480156107c057600080fd5b506103546107cf36600461220e565b6115c6565b3480156107e057600080fd5b506104067f0393b4c1b6519e8b53ae0efa1ab522060a3b9f8d86d09c8a22ca6d6eea735cf781565b60007fffffffff0000000000000000000000000000000000000000000000000000000082167f2a55205a00000000000000000000000000000000000000000000000000000000148061085e575061085e82611607565b92915050565b60606000805461087390612597565b80601f016020809104026020016040519081016040528092919081815260200182805461089f90612597565b80156108ec5780601f106108c1576101008083540402835291602001916108ec565b820191906000526020600020905b8154815290600101906020018083116108cf57829003601f168201915b5050505050905090565b60006109018261165d565b506000828152600460205260409020546001600160a01b031661085e565b61092a8282336116af565b5050565b7f0393b4c1b6519e8b53ae0efa1ab522060a3b9f8d86d09c8a22ca6d6eea735cf7610958816116bc565b6109606116c6565b6000805b600f54811015610a145784600f8281548110610982576109826125ea565b906000526020600020015403610a0c57600f80546109a290600190612648565b815481106109b2576109b26125ea565b9060005260206000200154600f82815481106109d0576109d06125ea565b600091825260209091200155600f8054806109ed576109ed61265b565b6001900381819060005260206000200160009055905560019150610a14565b600101610964565b5080610aa7576040517f08c379a000000000000000000000000000000000000000000000000000000000815260206004820152602560248201527f546f6b656e206e6f7420666f756e64206f7220616c726561647920686173206160448201527f205552492e00000000000000000000000000000000000000000000000000000060648201526084015b60405180910390fd5b6000848152600d60205260409020610abf84826126da565b50837f8e9e57f76717c62e98cc2cacc24a47ceb059955f5bfd134c59fd6bc1c04dc67784604051610af091906121fb565b60405180910390a250610b036001600855565b505050565b600d6020526000908152604090208054610b2190612597565b80601f0160208091040260200160405190810160405280929190818152602001828054610b4d90612597565b8015610b9a5780601f10610b6f57610100808354040283529160200191610b9a565b820191906000526020600020905b815481529060010190602001808311610b7d57829003601f168201915b505050505081565b7f0393b4c1b6519e8b53ae0efa1ab522060a3b9f8d86d09c8a22ca6d6eea735cf7610bcc816116bc565b610bd46116c6565b6001600160a01b038216610c44576040517f08c379a000000000000000000000000000000000000000000000000000000000815260206004820181905260248201527f43616e6e6f74206d696e7420746f20746865207a65726f20616464726573732e6044820152606401610a9e565b60098054906000610c54836127f4565b9091555050600954610c668382611709565b60405181906001600160a01b038516907f7f9c9cb9137926c7f7c3bdbb971b627d14e5f95ded13be068becbd8ce819836190600090a35061092a6001600855565b6001600160a01b038216610cea576040517f64a0ae9200000000000000000000000000000000000000000000000000000000815260006004820152602401610a9e565b6000610cf78383336117a0565b9050836001600160a01b0316816001600160a01b031614610d5e576040517f64283d7b0000000000000000000000000000000000000000000000000000000081526001600160a01b0380861660048301526024820184905282166044820152606401610a9e565b50505050565b6000806064600c5484610d77919061282c565b610d819190612843565b600b546001600160a01b03169590945092505050565b600082815260076020526040902060010154610db2816116bc565b610d5e83836118cf565b6001600160a01b0381163314610dfe576040517f6697b23200000000000000000000000000000000000000000000000000000000815260040160405180910390fd5b610b03828261199b565b7f0393b4c1b6519e8b53ae0efa1ab522060a3b9f8d86d09c8a22ca6d6eea735cf7610e32816116bc565b610e3a6116c6565b4780610ea2576040517f08c379a000000000000000000000000000000000000000000000000000000000815260206004820152601960248201527f4e6f206574686572206c65667420746f207769746864726177000000000000006044820152606401610a9e565b6000610eb66006546001600160a01b031690565b6001600160a01b03168260405160006040518083038185875af1925050503d8060008114610f00576040519150601f19603f3d011682016040523d82523d6000602084013e610f05565b606091505b5050905080610f70576040517f08c379a000000000000000000000000000000000000000000000000000000000815260206004820152601060248201527f5472616e73666572206661696c65642e000000000000000000000000000000006044820152606401610a9e565b5050610f7c6001600855565b50565b610b038383836040518060200160405280600081525061132a565b610fa2611a40565b610faa6116c6565b610fd47f0393b4c1b6519e8b53ae0efa1ab522060a3b9f8d86d09c8a22ca6d6eea735cf7826118cf565b50610f7c6001600855565b600061085e8261165d565b6001600160a01b03811660009081527f8d5cfb28b96d7d341f0c3ff58430970fc636faea98a418faad59a72259761ef4602052604081205460ff1661085e565b6060600f8054806020026020016040519081016040528092919081815260200182805480156108ec57602002820191906000526020600020905b815481526020019060010190808311611064575050505050905090565b7f0393b4c1b6519e8b53ae0efa1ab522060a3b9f8d86d09c8a22ca6d6eea735cf76110ab816116bc565b6110b36116c6565b6110dd7f0393b4c1b6519e8b53ae0efa1ab522060a3b9f8d86d09c8a22ca6d6eea735cf78361199b565b5061092a6001600855565b60006001600160a01b03821661112d576040517f89c62b6400000000000000000000000000000000000000000000000000000000815260006004820152602401610a9e565b506001600160a01b031660009081526003602052604090205490565b611151611a40565b61115b6000611a86565b565b6111656116c6565b6000611170826113e3565b9050803414611201576040517f08c379a000000000000000000000000000000000000000000000000000000000815260206004820152603360248201527f506c65617365207375626d697420746865206578616374206d696e74696e672060448201527f66656520666f72207468652062756e646c652e000000000000000000000000006064820152608401610a9e565b33611268576040517f08c379a000000000000000000000000000000000000000000000000000000000815260206004820181905260248201527f43616e6e6f74206d696e7420746f20746865207a65726f20616464726573732e6044820152606401610a9e565b60005b82811015610f705760098054906000611283836127f4565b90915550506009546112953382611709565b600f8054600181810183556000929092527f8d1108e10bcb7c27dddfc02ed9d693a074039d026cf4ea4240b40f7d581ac80201919091550161126b565b7f0393b4c1b6519e8b53ae0efa1ab522060a3b9f8d86d09c8a22ca6d6eea735cf76112fc816116bc565b6113046116c6565b600a6110dd83826126da565b60606001805461087390612597565b61092a338383611af0565b611335848484610ca7565b610d5e84848484611bc6565b6000818152600d6020526040902080546060919061135e90612597565b80601f016020809104026020016040519081016040528092919081815260200182805461138a90612597565b80156113d75780601f106113ac576101008083540402835291602001916113d7565b820191906000526020600020905b8154815290600101906020018083116113ba57829003601f168201915b50505050509050919050565b6000620f4240600a83900361142857806113ff6103e882612648565b84600e5461140d919061282c565b611417919061282c565b6114219190612843565b9392505050565b8260190361143d57806113ff6109c482612648565b8260640361145257806113ff61138882612648565b826001036114685782600e54611421919061282c565b6040517f08c379a000000000000000000000000000000000000000000000000000000000815260206004820152601060248201527f496e76616c6964207175616e74697479000000000000000000000000000000006044820152606401610a9e565b6000828152600760205260409020600101546114e5816116bc565b610d5e838361199b565b7f0393b4c1b6519e8b53ae0efa1ab522060a3b9f8d86d09c8a22ca6d6eea735cf7611519816116bc565b6115216116c6565b600b80547fffffffffffffffffffffffff0000000000000000000000000000000000000000166001600160a01b038516179055600c8290556001600855505050565b6060600a805461087390612597565b61157a611a40565b6001600160a01b0381166115bd576040517f1e4fbdf700000000000000000000000000000000000000000000000000000000815260006004820152602401610a9e565b610f7c81611a86565b7f0393b4c1b6519e8b53ae0efa1ab522060a3b9f8d86d09c8a22ca6d6eea735cf76115f0816116bc565b6115f86116c6565b600e82905561092a6001600855565b60007fffffffff0000000000000000000000000000000000000000000000000000000082167f7965db0b00000000000000000000000000000000000000000000000000000000148061085e575061085e82611d89565b6000818152600260205260408120546001600160a01b03168061085e576040517f7e27328900000000000000000000000000000000000000000000000000000000815260048101849052602401610a9e565b610b038383836001611e6c565b610f7c8133611fc2565b600260085403611702576040517f3ee5aeb500000000000000000000000000000000000000000000000000000000815260040160405180910390fd5b6002600855565b6001600160a01b03821661174c576040517f64a0ae9200000000000000000000000000000000000000000000000000000000815260006004820152602401610a9e565b600061175a838360006117a0565b90506001600160a01b03811615610b03576040517f73c6ac6e00000000000000000000000000000000000000000000000000000000815260006004820152602401610a9e565b6000828152600260205260408120546001600160a01b03908116908316156117cd576117cd818486612030565b6001600160a01b03811615611829576117ea600085600080611e6c565b6001600160a01b038116600090815260036020526040902080547fffffffffffffffffffffffffffffffffffffffffffffffffffffffffffffffff0190555b6001600160a01b03851615611858576001600160a01b0385166000908152600360205260409020805460010190555b60008481526002602052604080822080547fffffffffffffffffffffffff0000000000000000000000000000000000000000166001600160a01b0389811691821790925591518793918516917fddf252ad1be2c89b69c2b068fc378daa952ba7f163c4a11628f55a4df523b3ef91a4949350505050565b60008281526007602090815260408083206001600160a01b038516845290915281205460ff166119935760008381526007602090815260408083206001600160a01b0386168452909152902080547fffffffffffffffffffffffffffffffffffffffffffffffffffffffffffffff0016600117905561194b3390565b6001600160a01b0316826001600160a01b0316847f2f8788117e7eff1d82e926ec794901d17c78024a50270940304540a733656f0d60405160405180910390a450600161085e565b50600061085e565b60008281526007602090815260408083206001600160a01b038516845290915281205460ff16156119935760008381526007602090815260408083206001600160a01b038616808552925280832080547fffffffffffffffffffffffffffffffffffffffffffffffffffffffffffffff0016905551339286917ff6391f5c32d9c69d2a47ea670b442974b53935d1edc7fd64eb21e047a839171b9190a450600161085e565b6006546001600160a01b0316331461115b576040517f118cdaa7000000000000000000000000000000000000000000000000000000008152336004820152602401610a9e565b600680546001600160a01b038381167fffffffffffffffffffffffff0000000000000000000000000000000000000000831681179093556040519116919082907f8be0079c531659141344cd1fd0a4f28419497f9722a3daafe3b4186f6b6457e090600090a35050565b6001600160a01b038216611b3b576040517f5b08ba180000000000000000000000000000000000000000000000000000000081526001600160a01b0383166004820152602401610a9e565b6001600160a01b0383811660008181526005602090815260408083209487168084529482529182902080547fffffffffffffffffffffffffffffffffffffffffffffffffffffffffffffff001686151590811790915591519182527f17307eab39ab6107e8899845ad3d59bd9653f200f220920489ca2b5937696c31910160405180910390a3505050565b6001600160a01b0383163b15610d5e576040517f150b7a020000000000000000000000000000000000000000000000000000000081526001600160a01b0384169063150b7a0290611c2190339088908790879060040161287e565b6020604051808303816000875af1925050508015611c7a575060408051601f3d9081017fffffffffffffffffffffffffffffffffffffffffffffffffffffffffffffffe0168201909252611c77918101906128ba565b60015b611cfc573d808015611ca8576040519150601f19603f3d011682016040523d82523d6000602084013e611cad565b606091505b508051600003611cf4576040517f64a0ae920000000000000000000000000000000000000000000000000000000081526001600160a01b0385166004820152602401610a9e565b805181602001fd5b7fffffffff0000000000000000000000000000000000000000000000000000000081167f150b7a020000000000000000000000000000000000000000000000000000000014611d82576040517f64a0ae920000000000000000000000000000000000000000000000000000000081526001600160a01b0385166004820152602401610a9e565b5050505050565b60007fffffffff0000000000000000000000000000000000000000000000000000000082167f80ac58cd000000000000000000000000000000000000000000000000000000001480611e1c57507fffffffff0000000000000000000000000000000000000000000000000000000082167f5b5e139f00000000000000000000000000000000000000000000000000000000145b8061085e57507f01ffc9a7000000000000000000000000000000000000000000000000000000007fffffffff0000000000000000000000000000000000000000000000000000000083161461085e565b8080611e8057506001600160a01b03821615155b15611f7a576000611e908461165d565b90506001600160a01b03831615801590611ebc5750826001600160a01b0316816001600160a01b031614155b8015611eee57506001600160a01b0380821660009081526005602090815260408083209387168352929052205460ff16155b15611f30576040517fa9fbf51f0000000000000000000000000000000000000000000000000000000081526001600160a01b0384166004820152602401610a9e565b8115611f785783856001600160a01b0316826001600160a01b03167f8c5be1e5ebec7d5bd14f71427d1e84f3dd0314c0f7b2291e5b200ac8c7c3b92560405160405180910390a45b505b5050600090815260046020526040902080547fffffffffffffffffffffffff0000000000000000000000000000000000000000166001600160a01b0392909216919091179055565b60008281526007602090815260408083206001600160a01b038516845290915290205460ff1661092a576040517fe2517d3f0000000000000000000000000000000000000000000000000000000081526001600160a01b038216600482015260248101839052604401610a9e565b61203b8383836120c6565b610b03576001600160a01b038316612082576040517f7e27328900000000000000000000000000000000000000000000000000000000815260048101829052602401610a9e565b6040517f177e802f0000000000000000000000000000000000000000000000000000000081526001600160a01b038316600482015260248101829052604401610a9e565b60006001600160a01b038316158015906121445750826001600160a01b0316846001600160a01b0316148061212057506001600160a01b0380851660009081526005602090815260408083209387168352929052205460ff165b8061214457506000828152600460205260409020546001600160a01b038481169116145b949350505050565b7fffffffff0000000000000000000000000000000000000000000000000000000081168114610f7c57600080fd5b60006020828403121561218c57600080fd5b81356114218161214c565b6000815180845260005b818110156121bd576020818501810151868301820152016121a1565b5060006020828601015260207fffffffffffffffffffffffffffffffffffffffffffffffffffffffffffffffe0601f83011685010191505092915050565b6020815260006114216020830184612197565b60006020828403121561222057600080fd5b5035919050565b80356001600160a01b038116811461223e57600080fd5b919050565b6000806040838503121561225657600080fd5b61225f83612227565b946020939093013593505050565b7f4e487b7100000000000000000000000000000000000000000000000000000000600052604160045260246000fd5b600067ffffffffffffffff808411156122b7576122b761226d565b604051601f85017fffffffffffffffffffffffffffffffffffffffffffffffffffffffffffffffe0908116603f011681019082821181831017156122fd576122fd61226d565b8160405280935085815286868601111561231657600080fd5b858560208301376000602087830101525050509392505050565b600082601f83011261234157600080fd5b6114218383356020850161229c565b6000806040838503121561236357600080fd5b82359150602083013567ffffffffffffffff81111561238157600080fd5b61238d85828601612330565b9150509250929050565b6000602082840312156123a957600080fd5b61142182612227565b6000806000606084860312156123c757600080fd5b6123d084612227565b92506123de60208501612227565b9150604084013590509250925092565b6000806040838503121561240157600080fd5b50508035926020909101359150565b6000806040838503121561242357600080fd5b8235915061243360208401612227565b90509250929050565b6020808252825182820181905260009190848201906040850190845b8181101561247457835183529284019291840191600101612458565b50909695505050505050565b60006020828403121561249257600080fd5b813567ffffffffffffffff8111156124a957600080fd5b61214484828501612330565b600080604083850312156124c857600080fd5b6124d183612227565b9150602083013580151581146124e657600080fd5b809150509250929050565b6000806000806080858703121561250757600080fd5b61251085612227565b935061251e60208601612227565b925060408501359150606085013567ffffffffffffffff81111561254157600080fd5b8501601f8101871361255257600080fd5b6125618782356020840161229c565b91505092959194509250565b6000806040838503121561258057600080fd5b61258983612227565b915061243360208401612227565b600181811c908216806125ab57607f821691505b6020821081036125e4577f4e487b7100000000000000000000000000000000000000000000000000000000600052602260045260246000fd5b50919050565b7f4e487b7100000000000000000000000000000000000000000000000000000000600052603260045260246000fd5b7f4e487b7100000000000000000000000000000000000000000000000000000000600052601160045260246000fd5b8181038181111561085e5761085e612619565b7f4e487b7100000000000000000000000000000000000000000000000000000000600052603160045260246000fd5b601f821115610b03576000816000526020600020601f850160051c810160208610156126b35750805b601f850160051c820191505b818110156126d2578281556001016126bf565b505050505050565b815167ffffffffffffffff8111156126f4576126f461226d565b612708816127028454612597565b8461268a565b602080601f83116001811461275b57600084156127255750858301515b7fffffffffffffffffffffffffffffffffffffffffffffffffffffffffffffffff600386901b1c1916600185901b1785556126d2565b6000858152602081207fffffffffffffffffffffffffffffffffffffffffffffffffffffffffffffffe08616915b828110156127a857888601518255948401946001909101908401612789565b50858210156127e457878501517fffffffffffffffffffffffffffffffffffffffffffffffffffffffffffffffff600388901b60f8161c191681555b5050505050600190811b01905550565b60007fffffffffffffffffffffffffffffffffffffffffffffffffffffffffffffffff820361282557612825612619565b5060010190565b808202811582820484141761085e5761085e612619565b600082612879577f4e487b7100000000000000000000000000000000000000000000000000000000600052601260045260246000fd5b500490565b60006001600160a01b038087168352808616602084015250836040830152608060608301526128b06080830184612197565b9695505050505050565b6000602082840312156128cc57600080fd5b81516114218161214c56fea164736f6c6343000817000a","linkReferences":{}},"methodIdentifiers":{"AUTHORIZED_ROLE()":"f6468251","DEFAULT_ADMIN_ROLE()":"a217fddf","addAuthorizedAddress(address)":"42f1181e","airdrop(address)":"21860a05","approve(address,uint256)":"095ea7b3","balanceOf(address)":"70a08231","contractURI()":"e8a3d485","getApproved(uint256)":"081812fc","getBoardlessTokens()":"6f26d9ae","getRoleAdmin(bytes32)":"248a9ca3","getTotalPrice(uint256)":"ca7dd375","grantRole(bytes32,address)":"2f2ff15d","hasAuthorizedAddress(address)":"63759d4c","hasRole(bytes32,address)":"91d14854","isApprovedForAll(address,address)":"e985e9c5","mintNFT(uint256)":"92642744","mintPrice()":"6817c76c","name()":"06fdde03","owner()":"8da5cb5b","ownerOf(uint256)":"6352211e","removeAuthorizedAddress(address)":"70712939","renounceOwnership()":"715018a6","renounceRole(bytes32,address)":"36568abe","revokeRole(bytes32,address)":"d547741f","royaltyInfo(uint256,uint256)":"2a55205a","safeTransferFrom(address,address,uint256)":"42842e0e","safeTransferFrom(address,address,uint256,bytes)":"b88d4fde","setApprovalForAll(address,bool)":"a22cb465","setContractURI(string)":"938e3d7b","setMintPrice(uint256)":"f4a0a528","setRoyaltyInfo(address,uint256)":"e2e784d5","setTokenURI(uint256,string)":"162094c4","supportsInterface(bytes4)":"01ffc9a7","symbol()":"95d89b41","tokenURI(uint256)":"c87b56dd","tokenUri(uint256)":"1675f455","transferFrom(address,address,uint256)":"23b872dd","transferOwnership(address)":"f2fde38b","withdraw()":"3ccfd60b"},"id":54}