{"abi":[{"type":"constructor","inputs":[{"name":"contractURI_","type":"string","internalType":"string"}],"stateMutability":"nonpayable"},{"type":"function","name":"AUTHORIZED_MINTER_ROLE","inputs":[],"outputs":[{"name":"","type":"bytes32","internalType":"bytes32"}],"stateMutability":"view"},{"type":"function","name":"DEFAULT_ADMIN_ROLE","inputs":[],"outputs":[{"name":"","type":"bytes32","internalType":"bytes32"}],"stateMutability":"view"},{"type":"function","name":"approve","inputs":[{"name":"to","type":"address","internalType":"address"},{"name":"tokenId","type":"uint256","internalType":"uint256"}],"outputs":[],"stateMutability":"nonpayable"},{"type":"function","name":"balanceOf","inputs":[{"name":"owner","type":"address","internalType":"address"}],"outputs":[{"name":"","type":"uint256","internalType":"uint256"}],"stateMutability":"view"},{"type":"function","name":"contractURI","inputs":[],"outputs":[{"name":"","type":"string","internalType":"string"}],"stateMutability":"view"},{"type":"function","name":"getApproved","inputs":[{"name":"tokenId","type":"uint256","internalType":"uint256"}],"outputs":[{"name":"","type":"address","internalType":"address"}],"stateMutability":"view"},{"type":"function","name":"getRoleAdmin","inputs":[{"name":"role","type":"bytes32","internalType":"bytes32"}],"outputs":[{"name":"","type":"bytes32","internalType":"bytes32"}],"stateMutability":"view"},{"type":"function","name":"grantMinterRole","inputs":[{"name":"minter","type":"address","internalType":"address"}],"outputs":[],"stateMutability":"nonpayable"},{"type":"function","name":"grantRole","inputs":[{"name":"role","type":"bytes32","internalType":"bytes32"},{"name":"account","type":"address","internalType":"address"}],"outputs":[],"stateMutability":"nonpayable"},{"type":"function","name":"hasRole","inputs":[{"name":"role","type":"bytes32","internalType":"bytes32"},{"name":"account","type":"address","internalType":"address"}],"outputs":[{"name":"","type":"bool","internalType":"bool"}],"stateMutability":"view"},{"type":"function","name":"isApprovedForAll","inputs":[{"name":"owner","type":"address","internalType":"address"},{"name":"operator","type":"address","internalType":"address"}],"outputs":[{"name":"","type":"bool","internalType":"bool"}],"stateMutability":"view"},{"type":"function","name":"mintNFT","inputs":[{"name":"recipient","type":"address","internalType":"address"}],"outputs":[{"name":"","type":"uint256","internalType":"uint256"}],"stateMutability":"nonpayable"},{"type":"function","name":"name","inputs":[],"outputs":[{"name":"","type":"string","internalType":"string"}],"stateMutability":"view"},{"type":"function","name":"owner","inputs":[],"outputs":[{"name":"","type":"address","internalType":"address"}],"stateMutability":"view"},{"type":"function","name":"ownerOf","inputs":[{"name":"tokenId","type":"uint256","internalType":"uint256"}],"outputs":[{"name":"","type":"address","internalType":"address"}],"stateMutability":"view"},{"type":"function","name":"renounceOwnership","inputs":[],"outputs":[],"stateMutability":"nonpayable"},{"type":"function","name":"renounceRole","inputs":[{"name":"role","type":"bytes32","internalType":"bytes32"},{"name":"callerConfirmation","type":"address","internalType":"address"}],"outputs":[],"stateMutability":"nonpayable"},{"type":"function","name":"revokeMinterRole","inputs":[{"name":"minter","type":"address","internalType":"address"}],"outputs":[],"stateMutability":"nonpayable"},{"type":"function","name":"revokeRole","inputs":[{"name":"role","type":"bytes32","internalType":"bytes32"},{"name":"account","type":"address","internalType":"address"}],"outputs":[],"stateMutability":"nonpayable"},{"type":"function","name":"royaltyInfo","inputs":[{"name":"","type":"uint256","internalType":"uint256"},{"name":"salePrice","type":"uint256","internalType":"uint256"}],"outputs":[{"name":"receiver","type":"address","internalType":"address"},{"name":"royaltyAmount","type":"uint256","internalType":"uint256"}],"stateMutability":"view"},{"type":"function","name":"safeTransferFrom","inputs":[{"name":"from","type":"address","internalType":"address"},{"name":"to","type":"address","internalType":"address"},{"name":"tokenId","type":"uint256","internalType":"uint256"}],"outputs":[],"stateMutability":"nonpayable"},{"type":"function","name":"safeTransferFrom","inputs":[{"name":"from","type":"address","internalType":"address"},{"name":"to","type":"address","internalType":"address"},{"name":"tokenId","type":"uint256","internalType":"uint256"},{"name":"data","type":"bytes","internalType":"bytes"}],"outputs":[],"stateMutability":"nonpayable"},{"type":"function","name":"setApprovalForAll","inputs":[{"name":"operator","type":"address","internalType":"address"},{"name":"approved","type":"bool","internalType":"bool"}],"outputs":[],"stateMutability":"nonpayable"},{"type":"function","name":"setContractURI","inputs":[{"name":"contractURI_","type":"string","internalType":"string"}],"outputs":[],"stateMutability":"nonpayable"},{"type":"function","name":"setRoyaltyInfo","inputs":[{"name":"recipient","type":"address","internalType":"address"},{"name":"percentage","type":"uint256","internalType":"uint256"}],"outputs":[],"stateMutability":"nonpayable"},{"type":"function","name":"setTokenURI","inputs":[{"name":"_tokenId","type":"uint256","internalType":"uint256"},{"name":"_uri","type":"string","internalType":"string"}],"outputs":[],"stateMutability":"nonpayable"},{"type":"function","name":"supportsInterface","inputs":[{"name":"interfaceId","type":"bytes4","internalType":"bytes4"}],"outputs":[{"name":"","type":"bool","internalType":"bool"}],"stateMutability":"view"},{"type":"function","name":"symbol","inputs":[],"outputs":[{"name":"","type":"string","internalType":"string"}],"stateMutability":"view"},{"type":"function","name":"tokenURI","inputs":[{"name":"tokenId","type":"uint256","internalType":"uint256"}],"outputs":[{"name":"","type":"string","internalType":"string"}],"stateMutability":"view"},{"type":"function","name":"tokenUri","inputs":[{"name":"","type":"uint256","internalType":"uint256"}],"outputs":[{"name":"","type":"string","internalType":"string"}],"stateMutability":"view"},{"type":"function","name":"transferFrom","inputs":[{"name":"from","type":"address","internalType":"address"},{"name":"to","type":"address","internalType":"address"},{"name":"tokenId","type":"uint256","internalType":"uint256"}],"outputs":[],"stateMutability":"nonpayable"},{"type":"function","name":"transferOwnership","inputs":[{"name":"newOwner","type":"address","internalType":"address"}],"outputs":[],"stateMutability":"nonpayable"},{"type":"event","name":"Approval","inputs":[{"name":"owner","type":"address","indexed":true,"internalType":"address"},{"name":"approved","type":"address","indexed":true,"internalType":"address"},{"name":"tokenId","type":"uint256","indexed":true,"internalType":"uint256"}],"anonymous":false},{"type":"event","name":"ApprovalForAll","inputs":[{"name":"owner","type":"address","indexed":true,"internalType":"address"},{"name":"operator","type":"address","indexed":true,"internalType":"address"},{"name":"approved","type":"bool","indexed":false,"internalType":"bool"}],"anonymous":false},{"type":"event","name":"OwnershipTransferred","inputs":[{"name":"previousOwner","type":"address","indexed":true,"internalType":"address"},{"name":"newOwner","type":"address","indexed":true,"internalType":"address"}],"anonymous":false},{"type":"event","name":"RoleAdminChanged","inputs":[{"name":"role","type":"bytes32","indexed":true,"internalType":"bytes32"},{"name":"previousAdminRole","type":"bytes32","indexed":true,"internalType":"bytes32"},{"name":"newAdminRole","type":"bytes32","indexed":true,"internalType":"bytes32"}],"anonymous":false},{"type":"event","name":"RoleGranted","inputs":[{"name":"role","type":"bytes32","indexed":true,"internalType":"bytes32"},{"name":"account","type":"address","indexed":true,"internalType":"address"},{"name":"sender","type":"address","indexed":true,"internalType":"address"}],"anonymous":false},{"type":"event","name":"RoleRevoked","inputs":[{"name":"role","type":"bytes32","indexed":true,"internalType":"bytes32"},{"name":"account","type":"address","indexed":true,"internalType":"address"},{"name":"sender","type":"address","indexed":true,"internalType":"address"}],"anonymous":false},{"type":"event","name":"Transfer","inputs":[{"name":"from","type":"address","indexed":true,"internalType":"address"},{"name":"to","type":"address","indexed":true,"internalType":"address"},{"name":"tokenId","type":"uint256","indexed":true,"internalType":"uint256"}],"anonymous":false},{"type":"error","name":"AccessControlBadConfirmation","inputs":[]},{"type":"error","name":"AccessControlUnauthorizedAccount","inputs":[{"name":"account","type":"address","internalType":"address"},{"name":"neededRole","type":"bytes32","internalType":"bytes32"}]},{"type":"error","name":"ERC721IncorrectOwner","inputs":[{"name":"sender","type":"address","internalType":"address"},{"name":"tokenId","type":"uint256","internalType":"uint256"},{"name":"owner","type":"address","internalType":"address"}]},{"type":"error","name":"ERC721InsufficientApproval","inputs":[{"name":"operator","type":"address","internalType":"address"},{"name":"tokenId","type":"uint256","internalType":"uint256"}]},{"type":"error","name":"ERC721InvalidApprover","inputs":[{"name":"approver","type":"address","internalType":"address"}]},{"type":"error","name":"ERC721InvalidOperator","inputs":[{"name":"operator","type":"address","internalType":"address"}]},{"type":"error","name":"ERC721InvalidOwner","inputs":[{"name":"owner","type":"address","internalType":"address"}]},{"type":"error","name":"ERC721InvalidReceiver","inputs":[{"name":"receiver","type":"address","internalType":"address"}]},{"type":"error","name":"ERC721InvalidSender","inputs":[{"name":"sender","type":"address","internalType":"address"}]},{"type":"error","name":"ERC721NonexistentToken","inputs":[{"name":"tokenId","type":"uint256","internalType":"uint256"}]},{"type":"error","name":"OwnableInvalidOwner","inputs":[{"name":"owner","type":"address","internalType":"address"}]},{"type":"error","name":"OwnableUnauthorizedAccount","inputs":[{"name":"account","type":"address","internalType":"address"}]}],"bytecode":{"object":"0x60806040523480156200001157600080fd5b50604051620026313803806200263183398101604081905262000034916200031a565b336040518060400160405280601381526020017f43617270696e7465726f4e465420546f6b656e000000000000000000000000008152506040518060400160405280600d81526020016c10d85c9c1a5b9d195c9bd39195609a1b8152508160009081620000a2919062000480565b506001620000b1828262000480565b5050506001600160a01b038116620000e457604051631e4fbdf760e01b8152600060048201526024015b60405180910390fd5b620000ef8162000166565b506009620000fe828262000480565b50600654600a80546001600160a01b0319166001600160a01b039092169190911790556001600b5562000133600033620001b8565b6200015f7fe918b231727c964e85d5ce841b7b0735aa540b813b93ecc15a2cd996d2608d6233620001b8565b506200054c565b600680546001600160a01b038381166001600160a01b0319831681179093556040519116919082907f8be0079c531659141344cd1fd0a4f28419497f9722a3daafe3b4186f6b6457e090600090a35050565b600082815260076020526040902060010154620001d581620001e7565b620001e18383620001f6565b50505050565b620001f38133620002a9565b50565b60008281526007602090815260408083206001600160a01b038516845290915281205460ff166200029f5760008381526007602090815260408083206001600160a01b03861684529091529020805460ff19166001179055620002563390565b6001600160a01b0316826001600160a01b0316847f2f8788117e7eff1d82e926ec794901d17c78024a50270940304540a733656f0d60405160405180910390a4506001620002a3565b5060005b92915050565b60008281526007602090815260408083206001600160a01b038516845290915290205460ff16620003005760405163e2517d3f60e01b81526001600160a01b038216600482015260248101839052604401620000db565b5050565b634e487b7160e01b600052604160045260246000fd5b600060208083850312156200032e57600080fd5b82516001600160401b03808211156200034657600080fd5b818501915085601f8301126200035b57600080fd5b81518181111562000370576200037062000304565b604051601f8201601f19908116603f011681019083821181831017156200039b576200039b62000304565b816040528281528886848701011115620003b457600080fd5b600093505b82841015620003d85784840186015181850187015292850192620003b9565b600086848301015280965050505050505092915050565b600181811c908216806200040457607f821691505b6020821081036200042557634e487b7160e01b600052602260045260246000fd5b50919050565b601f8211156200047b576000816000526020600020601f850160051c81016020861015620004565750805b601f850160051c820191505b81811015620004775782815560010162000462565b5050505b505050565b81516001600160401b038111156200049c576200049c62000304565b620004b481620004ad8454620003ef565b846200042b565b602080601f831160018114620004ec5760008415620004d35750858301515b600019600386901b1c1916600185901b17855562000477565b600085815260208120601f198616915b828110156200051d57888601518255948401946001909101908401620004fc565b50858210156200053c5787850151600019600388901b60f8161c191681555b5050505050600190811b01905550565b6120d5806200055c6000396000f3fe608060405234801561001057600080fd5b50600436106101f05760003560e01c806370a082311161010f578063b88d4fde116100a2578063e5e87c0811610071578063e5e87c081461047a578063e8a3d485146104a1578063e985e9c5146104a9578063f2fde38b146104e557600080fd5b8063b88d4fde1461042e578063c87b56dd14610441578063d547741f14610454578063e2e784d51461046757600080fd5b8063938e3d7b116100de578063938e3d7b146103f857806395d89b411461040b578063a217fddf14610413578063a22cb4651461041b57600080fd5b806370a0823114610393578063715018a6146103a65780638da5cb5b146103ae57806391d14854146103bf57600080fd5b80632a55205a1161018757806342842e0e1161015657806342842e0e1461034757806354ba0f271461035a5780636352211e1461036d57806369e2f0fb1461038057600080fd5b80632a55205a146102dc5780632f2ff15d1461030e57806336568abe146103215780633dd1eb611461033457600080fd5b8063162094c4116101c3578063162094c4146102725780631675f4551461028557806323b872dd14610298578063248a9ca3146102ab57600080fd5b806301ffc9a7146101f557806306fdde031461021d578063081812fc14610232578063095ea7b31461025d575b600080fd5b6102086102033660046119e7565b6104f8565b60405190151581526020015b60405180910390f35b610225610554565b6040516102149190611a72565b610245610240366004611a85565b6105e6565b6040516001600160a01b039091168152602001610214565b61027061026b366004611aba565b61060f565b005b610270610280366004611bc7565b61061e565b610225610293366004611a85565b610643565b6102706102a6366004611c0e565b6106dd565b6102ce6102b9366004611a85565b60009081526007602052604090206001015490565b604051908152602001610214565b6102ef6102ea366004611c4a565b61079f565b604080516001600160a01b039093168352602083019190915201610214565b61027061031c366004611c6c565b6107d2565b61027061032f366004611c6c565b6107f7565b610270610342366004611c98565b610843565b610270610355366004611c0e565b610908565b6102ce610368366004611c98565b610923565b61024561037b366004611a85565b610a4d565b61027061038e366004611c98565b610a58565b6102ce6103a1366004611c98565b610b1a565b610270610b7b565b6006546001600160a01b0316610245565b6102086103cd366004611c6c565b60009182526007602090815260408084206001600160a01b0393909316845291905290205460ff1690565b610270610406366004611cb3565b610b8f565b610225610ba3565b6102ce600081565b610270610429366004611ce8565b610bb2565b61027061043c366004611d24565b610bbd565b61022561044f366004611a85565b610bd4565b610270610462366004611c6c565b610c49565b610270610475366004611aba565b610c6e565b6102ce7fe918b231727c964e85d5ce841b7b0735aa540b813b93ecc15a2cd996d2608d6281565b610225610cb4565b6102086104b7366004611da0565b6001600160a01b03918216600090815260056020908152604080832093909416825291909152205460ff1690565b6102706104f3366004611c98565b610cc3565b60007fffffffff0000000000000000000000000000000000000000000000000000000082167f2a55205a00000000000000000000000000000000000000000000000000000000148061054e575061054e82610d17565b92915050565b60606000805461056390611dca565b80601f016020809104026020016040519081016040528092919081815260200182805461058f90611dca565b80156105dc5780601f106105b1576101008083540402835291602001916105dc565b820191906000526020600020905b8154815290600101906020018083116105bf57829003601f168201915b5050505050905090565b60006105f182610d6d565b506000828152600460205260409020546001600160a01b031661054e565b61061a828233610dbf565b5050565b610626610dcc565b6000828152600c6020526040902061063e8282611e6d565b505050565b600c602052600090815260409020805461065c90611dca565b80601f016020809104026020016040519081016040528092919081815260200182805461068890611dca565b80156106d55780601f106106aa576101008083540402835291602001916106d5565b820191906000526020600020905b8154815290600101906020018083116106b857829003601f168201915b505050505081565b6001600160a01b038216610725576040517f64a0ae92000000000000000000000000000000000000000000000000000000008152600060048201526024015b60405180910390fd5b6000610732838333610e12565b9050836001600160a01b0316816001600160a01b031614610799576040517f64283d7b0000000000000000000000000000000000000000000000000000000081526001600160a01b038086166004830152602482018490528216604482015260640161071c565b50505050565b6000806064600b54846107b29190611fb6565b6107bc9190611fcd565b600a546001600160a01b03169590945092505050565b6000828152600760205260409020600101546107ed81610f41565b6107998383610f4b565b6001600160a01b0381163314610839576040517f6697b23200000000000000000000000000000000000000000000000000000000815260040160405180910390fd5b61063e8282611017565b3360009081527f6d5257204ebe7d88fd91ae87941cb2dd9d8062b64ae5a2bd2d28ec40b9fbf6df602052604090205460ff166108db576040517f08c379a000000000000000000000000000000000000000000000000000000000815260206004820152601660248201527f43616c6c6572206973206e6f7420616e2061646d696e00000000000000000000604482015260640161071c565b6109057fe918b231727c964e85d5ce841b7b0735aa540b813b93ecc15a2cd996d2608d62826107d2565b50565b61063e83838360405180602001604052806000815250610bbd565b3360009081527ffdab29b13fbeb6cdbaf342ce163b4cc76d7124cf1fa5be4c6e08818bd53fd88c602052604081205460ff168061097957503361096e6006546001600160a01b031690565b6001600160a01b0316145b610a2b576040517f08c379a000000000000000000000000000000000000000000000000000000000815260206004820152604a60248201527f43617270696e7465726f4e46543a2043616c6c6572206d75737420686176652060448201527f74686520415554484f52495a45445f4d494e5445525f524f4c45206f7220626560648201527f20746865206f776e657200000000000000000000000000000000000000000000608482015260a40161071c565b60088054906000610a3b83612008565b909155505060085461054e83826110bc565b600061054e82610d6d565b3360009081527f6d5257204ebe7d88fd91ae87941cb2dd9d8062b64ae5a2bd2d28ec40b9fbf6df602052604090205460ff16610af0576040517f08c379a000000000000000000000000000000000000000000000000000000000815260206004820152601660248201527f43616c6c6572206973206e6f7420616e2061646d696e00000000000000000000604482015260640161071c565b6109057fe918b231727c964e85d5ce841b7b0735aa540b813b93ecc15a2cd996d2608d6282610c49565b60006001600160a01b038216610b5f576040517f89c62b640000000000000000000000000000000000000000000000000000000081526000600482015260240161071c565b506001600160a01b031660009081526003602052604090205490565b610b83610dcc565b610b8d6000611153565b565b610b97610dcc565b600961061a8282611e6d565b60606001805461056390611dca565b61061a3383836111bd565b610bc88484846106dd565b61079984848484611293565b6060610bdf82610d6d565b506000610bf760408051602081019091526000815290565b90506000815111610c175760405180602001604052806000815250610c42565b80610c2184611456565b604051602001610c32929190612040565b6040516020818303038152906040525b9392505050565b600082815260076020526040902060010154610c6481610f41565b6107998383611017565b610c76610dcc565b600a80547fffffffffffffffffffffffff0000000000000000000000000000000000000000166001600160a01b039390931692909217909155600b55565b60606009805461056390611dca565b610ccb610dcc565b6001600160a01b038116610d0e576040517f1e4fbdf70000000000000000000000000000000000000000000000000000000081526000600482015260240161071c565b61090581611153565b60007fffffffff0000000000000000000000000000000000000000000000000000000082167f7965db0b00000000000000000000000000000000000000000000000000000000148061054e575061054e82611514565b6000818152600260205260408120546001600160a01b03168061054e576040517f7e2732890000000000000000000000000000000000000000000000000000000081526004810184905260240161071c565b61063e83838360016115f7565b6006546001600160a01b03163314610b8d576040517f118cdaa700000000000000000000000000000000000000000000000000000000815233600482015260240161071c565b6000828152600260205260408120546001600160a01b0390811690831615610e3f57610e3f81848661174d565b6001600160a01b03811615610e9b57610e5c6000856000806115f7565b6001600160a01b038116600090815260036020526040902080547fffffffffffffffffffffffffffffffffffffffffffffffffffffffffffffffff0190555b6001600160a01b03851615610eca576001600160a01b0385166000908152600360205260409020805460010190555b60008481526002602052604080822080547fffffffffffffffffffffffff0000000000000000000000000000000000000000166001600160a01b0389811691821790925591518793918516917fddf252ad1be2c89b69c2b068fc378daa952ba7f163c4a11628f55a4df523b3ef91a4949350505050565b61090581336117e3565b60008281526007602090815260408083206001600160a01b038516845290915281205460ff1661100f5760008381526007602090815260408083206001600160a01b0386168452909152902080547fffffffffffffffffffffffffffffffffffffffffffffffffffffffffffffff00166001179055610fc73390565b6001600160a01b0316826001600160a01b0316847f2f8788117e7eff1d82e926ec794901d17c78024a50270940304540a733656f0d60405160405180910390a450600161054e565b50600061054e565b60008281526007602090815260408083206001600160a01b038516845290915281205460ff161561100f5760008381526007602090815260408083206001600160a01b038616808552925280832080547fffffffffffffffffffffffffffffffffffffffffffffffffffffffffffffff0016905551339286917ff6391f5c32d9c69d2a47ea670b442974b53935d1edc7fd64eb21e047a839171b9190a450600161054e565b6001600160a01b0382166110ff576040517f64a0ae920000000000000000000000000000000000000000000000000000000081526000600482015260240161071c565b600061110d83836000610e12565b90506001600160a01b0381161561063e576040517f73c6ac6e0000000000000000000000000000000000000000000000000000000081526000600482015260240161071c565b600680546001600160a01b038381167fffffffffffffffffffffffff0000000000000000000000000000000000000000831681179093556040519116919082907f8be0079c531659141344cd1fd0a4f28419497f9722a3daafe3b4186f6b6457e090600090a35050565b6001600160a01b038216611208576040517f5b08ba180000000000000000000000000000000000000000000000000000000081526001600160a01b038316600482015260240161071c565b6001600160a01b0383811660008181526005602090815260408083209487168084529482529182902080547fffffffffffffffffffffffffffffffffffffffffffffffffffffffffffffff001686151590811790915591519182527f17307eab39ab6107e8899845ad3d59bd9653f200f220920489ca2b5937696c31910160405180910390a3505050565b6001600160a01b0383163b15610799576040517f150b7a020000000000000000000000000000000000000000000000000000000081526001600160a01b0384169063150b7a02906112ee90339088908790879060040161206f565b6020604051808303816000875af1925050508015611347575060408051601f3d9081017fffffffffffffffffffffffffffffffffffffffffffffffffffffffffffffffe0168201909252611344918101906120ab565b60015b6113c9573d808015611375576040519150601f19603f3d011682016040523d82523d6000602084013e61137a565b606091505b5080516000036113c1576040517f64a0ae920000000000000000000000000000000000000000000000000000000081526001600160a01b038516600482015260240161071c565b805181602001fd5b7fffffffff0000000000000000000000000000000000000000000000000000000081167f150b7a02000000000000000000000000000000000000000000000000000000001461144f576040517f64a0ae920000000000000000000000000000000000000000000000000000000081526001600160a01b038516600482015260240161071c565b5050505050565b6060600061146383611851565b600101905060008167ffffffffffffffff81111561148357611483611ae4565b6040519080825280601f01601f1916602001820160405280156114ad576020820181803683370190505b5090508181016020015b7fffffffffffffffffffffffffffffffffffffffffffffffffffffffffffffffff017f3031323334353637383961626364656600000000000000000000000000000000600a86061a8153600a85049450846114b757509392505050565b60007fffffffff0000000000000000000000000000000000000000000000000000000082167f80ac58cd0000000000000000000000000000000000000000000000000000000014806115a757507fffffffff0000000000000000000000000000000000000000000000000000000082167f5b5e139f00000000000000000000000000000000000000000000000000000000145b8061054e57507f01ffc9a7000000000000000000000000000000000000000000000000000000007fffffffff0000000000000000000000000000000000000000000000000000000083161461054e565b808061160b57506001600160a01b03821615155b1561170557600061161b84610d6d565b90506001600160a01b038316158015906116475750826001600160a01b0316816001600160a01b031614155b801561167957506001600160a01b0380821660009081526005602090815260408083209387168352929052205460ff16155b156116bb576040517fa9fbf51f0000000000000000000000000000000000000000000000000000000081526001600160a01b038416600482015260240161071c565b81156117035783856001600160a01b0316826001600160a01b03167f8c5be1e5ebec7d5bd14f71427d1e84f3dd0314c0f7b2291e5b200ac8c7c3b92560405160405180910390a45b505b5050600090815260046020526040902080547fffffffffffffffffffffffff0000000000000000000000000000000000000000166001600160a01b0392909216919091179055565b611758838383611933565b61063e576001600160a01b03831661179f576040517f7e2732890000000000000000000000000000000000000000000000000000000081526004810182905260240161071c565b6040517f177e802f0000000000000000000000000000000000000000000000000000000081526001600160a01b03831660048201526024810182905260440161071c565b60008281526007602090815260408083206001600160a01b038516845290915290205460ff1661061a576040517fe2517d3f0000000000000000000000000000000000000000000000000000000081526001600160a01b03821660048201526024810183905260440161071c565b6000807a184f03e93ff9f4daa797ed6e38ed64bf6a1f010000000000000000831061189a577a184f03e93ff9f4daa797ed6e38ed64bf6a1f010000000000000000830492506040015b6d04ee2d6d415b85acef810000000083106118c6576d04ee2d6d415b85acef8100000000830492506020015b662386f26fc1000083106118e457662386f26fc10000830492506010015b6305f5e10083106118fc576305f5e100830492506008015b612710831061191057612710830492506004015b60648310611922576064830492506002015b600a831061054e5760010192915050565b60006001600160a01b038316158015906119b15750826001600160a01b0316846001600160a01b0316148061198d57506001600160a01b0380851660009081526005602090815260408083209387168352929052205460ff165b806119b157506000828152600460205260409020546001600160a01b038481169116145b949350505050565b7fffffffff000000000000000000000000000000000000000000000000000000008116811461090557600080fd5b6000602082840312156119f957600080fd5b8135610c42816119b9565b60005b83811015611a1f578181015183820152602001611a07565b50506000910152565b60008151808452611a40816020860160208601611a04565b601f017fffffffffffffffffffffffffffffffffffffffffffffffffffffffffffffffe0169290920160200192915050565b602081526000610c426020830184611a28565b600060208284031215611a9757600080fd5b5035919050565b80356001600160a01b0381168114611ab557600080fd5b919050565b60008060408385031215611acd57600080fd5b611ad683611a9e565b946020939093013593505050565b7f4e487b7100000000000000000000000000000000000000000000000000000000600052604160045260246000fd5b600067ffffffffffffffff80841115611b2e57611b2e611ae4565b604051601f85017fffffffffffffffffffffffffffffffffffffffffffffffffffffffffffffffe0908116603f01168101908282118183101715611b7457611b74611ae4565b81604052809350858152868686011115611b8d57600080fd5b858560208301376000602087830101525050509392505050565b600082601f830112611bb857600080fd5b610c4283833560208501611b13565b60008060408385031215611bda57600080fd5b82359150602083013567ffffffffffffffff811115611bf857600080fd5b611c0485828601611ba7565b9150509250929050565b600080600060608486031215611c2357600080fd5b611c2c84611a9e565b9250611c3a60208501611a9e565b9150604084013590509250925092565b60008060408385031215611c5d57600080fd5b50508035926020909101359150565b60008060408385031215611c7f57600080fd5b82359150611c8f60208401611a9e565b90509250929050565b600060208284031215611caa57600080fd5b610c4282611a9e565b600060208284031215611cc557600080fd5b813567ffffffffffffffff811115611cdc57600080fd5b6119b184828501611ba7565b60008060408385031215611cfb57600080fd5b611d0483611a9e565b915060208301358015158114611d1957600080fd5b809150509250929050565b60008060008060808587031215611d3a57600080fd5b611d4385611a9e565b9350611d5160208601611a9e565b925060408501359150606085013567ffffffffffffffff811115611d7457600080fd5b8501601f81018713611d8557600080fd5b611d9487823560208401611b13565b91505092959194509250565b60008060408385031215611db357600080fd5b611dbc83611a9e565b9150611c8f60208401611a9e565b600181811c90821680611dde57607f821691505b602082108103611e17577f4e487b7100000000000000000000000000000000000000000000000000000000600052602260045260246000fd5b50919050565b601f82111561063e576000816000526020600020601f850160051c81016020861015611e465750805b601f850160051c820191505b81811015611e6557828155600101611e52565b505050505050565b815167ffffffffffffffff811115611e8757611e87611ae4565b611e9b81611e958454611dca565b84611e1d565b602080601f831160018114611eee5760008415611eb85750858301515b7fffffffffffffffffffffffffffffffffffffffffffffffffffffffffffffffff600386901b1c1916600185901b178555611e65565b6000858152602081207fffffffffffffffffffffffffffffffffffffffffffffffffffffffffffffffe08616915b82811015611f3b57888601518255948401946001909101908401611f1c565b5085821015611f7757878501517fffffffffffffffffffffffffffffffffffffffffffffffffffffffffffffffff600388901b60f8161c191681555b5050505050600190811b01905550565b7f4e487b7100000000000000000000000000000000000000000000000000000000600052601160045260246000fd5b808202811582820484141761054e5761054e611f87565b600082612003577f4e487b7100000000000000000000000000000000000000000000000000000000600052601260045260246000fd5b500490565b60007fffffffffffffffffffffffffffffffffffffffffffffffffffffffffffffffff820361203957612039611f87565b5060010190565b60008351612052818460208801611a04565b835190830190612066818360208801611a04565b01949350505050565b60006001600160a01b038087168352808616602084015250836040830152608060608301526120a16080830184611a28565b9695505050505050565b6000602082840312156120bd57600080fd5b8151610c42816119b956fea164736f6c6343000817000a","linkReferences":{}},"methodIdentifiers":{"AUTHORIZED_MINTER_ROLE()":"e5e87c08","DEFAULT_ADMIN_ROLE()":"a217fddf","approve(address,uint256)":"095ea7b3","balanceOf(address)":"70a08231","contractURI()":"e8a3d485","getApproved(uint256)":"081812fc","getRoleAdmin(bytes32)":"248a9ca3","grantMinterRole(address)":"3dd1eb61","grantRole(bytes32,address)":"2f2ff15d","hasRole(bytes32,address)":"91d14854","isApprovedForAll(address,address)":"e985e9c5","mintNFT(address)":"54ba0f27","name()":"06fdde03","owner()":"8da5cb5b","ownerOf(uint256)":"6352211e","renounceOwnership()":"715018a6","renounceRole(bytes32,address)":"36568abe","revokeMinterRole(address)":"69e2f0fb","revokeRole(bytes32,address)":"d547741f","royaltyInfo(uint256,uint256)":"2a55205a","safeTransferFrom(address,address,uint256)":"42842e0e","safeTransferFrom(address,address,uint256,bytes)":"b88d4fde","setApprovalForAll(address,bool)":"a22cb465","setContractURI(string)":"938e3d7b","setRoyaltyInfo(address,uint256)":"e2e784d5","setTokenURI(uint256,string)":"162094c4","supportsInterface(bytes4)":"01ffc9a7","symbol()":"95d89b41","tokenURI(uint256)":"c87b56dd","tokenUri(uint256)":"1675f455","transferFrom(address,address,uint256)":"23b872dd","transferOwnership(address)":"f2fde38b"},"id":53}