{"abi":[{"type":"constructor","inputs":[{"name":"contractURI_","type":"string","internalType":"string"}],"stateMutability":"nonpayable"},{"type":"function","name":"AUTHORIZED_ROLE","inputs":[],"outputs":[{"name":"","type":"bytes32","internalType":"bytes32"}],"stateMutability":"view"},{"type":"function","name":"DEFAULT_ADMIN_ROLE","inputs":[],"outputs":[{"name":"","type":"bytes32","internalType":"bytes32"}],"stateMutability":"view"},{"type":"function","name":"addAuthorizedAddress","inputs":[{"name":"authorizedAddress","type":"address","internalType":"address"}],"outputs":[],"stateMutability":"nonpayable"},{"type":"function","name":"approve","inputs":[{"name":"to","type":"address","internalType":"address"},{"name":"tokenId","type":"uint256","internalType":"uint256"}],"outputs":[],"stateMutability":"nonpayable"},{"type":"function","name":"balanceOf","inputs":[{"name":"owner","type":"address","internalType":"address"}],"outputs":[{"name":"","type":"uint256","internalType":"uint256"}],"stateMutability":"view"},{"type":"function","name":"contractURI","inputs":[],"outputs":[{"name":"","type":"string","internalType":"string"}],"stateMutability":"view"},{"type":"function","name":"getApproved","inputs":[{"name":"tokenId","type":"uint256","internalType":"uint256"}],"outputs":[{"name":"","type":"address","internalType":"address"}],"stateMutability":"view"},{"type":"function","name":"getBoardlessTokens","inputs":[],"outputs":[{"name":"","type":"uint256[]","internalType":"uint256[]"}],"stateMutability":"view"},{"type":"function","name":"getRoleAdmin","inputs":[{"name":"role","type":"bytes32","internalType":"bytes32"}],"outputs":[{"name":"","type":"bytes32","internalType":"bytes32"}],"stateMutability":"view"},{"type":"function","name":"getTotalPrice","inputs":[{"name":"quantity","type":"uint256","internalType":"uint256"}],"outputs":[{"name":"totalPrice","type":"uint256","internalType":"uint256"}],"stateMutability":"view"},{"type":"function","name":"grantRole","inputs":[{"name":"role","type":"bytes32","internalType":"bytes32"},{"name":"account","type":"address","internalType":"address"}],"outputs":[],"stateMutability":"nonpayable"},{"type":"function","name":"hasAuthorizedAddress","inputs":[{"name":"authorizedAddress","type":"address","internalType":"address"}],"outputs":[{"name":"","type":"bool","internalType":"bool"}],"stateMutability":"view"},{"type":"function","name":"hasRole","inputs":[{"name":"role","type":"bytes32","internalType":"bytes32"},{"name":"account","type":"address","internalType":"address"}],"outputs":[{"name":"","type":"bool","internalType":"bool"}],"stateMutability":"view"},{"type":"function","name":"isApprovedForAll","inputs":[{"name":"owner","type":"address","internalType":"address"},{"name":"operator","type":"address","internalType":"address"}],"outputs":[{"name":"","type":"bool","internalType":"bool"}],"stateMutability":"view"},{"type":"function","name":"mintNFT","inputs":[{"name":"quantity","type":"uint256","internalType":"uint256"}],"outputs":[],"stateMutability":"payable"},{"type":"function","name":"mintPrice","inputs":[],"outputs":[{"name":"","type":"uint256","internalType":"uint256"}],"stateMutability":"view"},{"type":"function","name":"name","inputs":[],"outputs":[{"name":"","type":"string","internalType":"string"}],"stateMutability":"view"},{"type":"function","name":"owner","inputs":[],"outputs":[{"name":"","type":"address","internalType":"address"}],"stateMutability":"view"},{"type":"function","name":"ownerOf","inputs":[{"name":"tokenId","type":"uint256","internalType":"uint256"}],"outputs":[{"name":"","type":"address","internalType":"address"}],"stateMutability":"view"},{"type":"function","name":"removeAuthorizedAddress","inputs":[{"name":"authorizedAddress","type":"address","internalType":"address"}],"outputs":[],"stateMutability":"nonpayable"},{"type":"function","name":"renounceOwnership","inputs":[],"outputs":[],"stateMutability":"nonpayable"},{"type":"function","name":"renounceRole","inputs":[{"name":"role","type":"bytes32","internalType":"bytes32"},{"name":"callerConfirmation","type":"address","internalType":"address"}],"outputs":[],"stateMutability":"nonpayable"},{"type":"function","name":"revokeRole","inputs":[{"name":"role","type":"bytes32","internalType":"bytes32"},{"name":"account","type":"address","internalType":"address"}],"outputs":[],"stateMutability":"nonpayable"},{"type":"function","name":"royaltyInfo","inputs":[{"name":"","type":"uint256","internalType":"uint256"},{"name":"salePrice","type":"uint256","internalType":"uint256"}],"outputs":[{"name":"receiver","type":"address","internalType":"address"},{"name":"royaltyAmount","type":"uint256","internalType":"uint256"}],"stateMutability":"view"},{"type":"function","name":"safeTransferFrom","inputs":[{"name":"from","type":"address","internalType":"address"},{"name":"to","type":"address","internalType":"address"},{"name":"tokenId","type":"uint256","internalType":"uint256"}],"outputs":[],"stateMutability":"nonpayable"},{"type":"function","name":"safeTransferFrom","inputs":[{"name":"from","type":"address","internalType":"address"},{"name":"to","type":"address","internalType":"address"},{"name":"tokenId","type":"uint256","internalType":"uint256"},{"name":"data","type":"bytes","internalType":"bytes"}],"outputs":[],"stateMutability":"nonpayable"},{"type":"function","name":"setApprovalForAll","inputs":[{"name":"operator","type":"address","internalType":"address"},{"name":"approved","type":"bool","internalType":"bool"}],"outputs":[],"stateMutability":"nonpayable"},{"type":"function","name":"setContractURI","inputs":[{"name":"contractURI_","type":"string","internalType":"string"}],"outputs":[],"stateMutability":"nonpayable"},{"type":"function","name":"setMintPrice","inputs":[{"name":"_newMintPrice","type":"uint256","internalType":"uint256"}],"outputs":[],"stateMutability":"nonpayable"},{"type":"function","name":"setRoyaltyInfo","inputs":[{"name":"recipient","type":"address","internalType":"address"},{"name":"percentage","type":"uint256","internalType":"uint256"}],"outputs":[],"stateMutability":"nonpayable"},{"type":"function","name":"setTokenURI","inputs":[{"name":"_tokenId","type":"uint256","internalType":"uint256"},{"name":"_uri","type":"string","internalType":"string"}],"outputs":[],"stateMutability":"nonpayable"},{"type":"function","name":"supportsInterface","inputs":[{"name":"interfaceId","type":"bytes4","internalType":"bytes4"}],"outputs":[{"name":"","type":"bool","internalType":"bool"}],"stateMutability":"view"},{"type":"function","name":"symbol","inputs":[],"outputs":[{"name":"","type":"string","internalType":"string"}],"stateMutability":"view"},{"type":"function","name":"tokenURI","inputs":[{"name":"_tokenId","type":"uint256","internalType":"uint256"}],"outputs":[{"name":"","type":"string","internalType":"string"}],"stateMutability":"view"},{"type":"function","name":"tokenUri","inputs":[{"name":"","type":"uint256","internalType":"uint256"}],"outputs":[{"name":"","type":"string","internalType":"string"}],"stateMutability":"view"},{"type":"function","name":"transferFrom","inputs":[{"name":"from","type":"address","internalType":"address"},{"name":"to","type":"address","internalType":"address"},{"name":"tokenId","type":"uint256","internalType":"uint256"}],"outputs":[],"stateMutability":"nonpayable"},{"type":"function","name":"transferOwnership","inputs":[{"name":"newOwner","type":"address","internalType":"address"}],"outputs":[],"stateMutability":"nonpayable"},{"type":"function","name":"withdraw","inputs":[],"outputs":[],"stateMutability":"nonpayable"},{"type":"event","name":"Approval","inputs":[{"name":"owner","type":"address","indexed":true,"internalType":"address"},{"name":"approved","type":"address","indexed":true,"internalType":"address"},{"name":"tokenId","type":"uint256","indexed":true,"internalType":"uint256"}],"anonymous":false},{"type":"event","name":"ApprovalForAll","inputs":[{"name":"owner","type":"address","indexed":true,"internalType":"address"},{"name":"operator","type":"address","indexed":true,"internalType":"address"},{"name":"approved","type":"bool","indexed":false,"internalType":"bool"}],"anonymous":false},{"type":"event","name":"OwnershipTransferred","inputs":[{"name":"previousOwner","type":"address","indexed":true,"internalType":"address"},{"name":"newOwner","type":"address","indexed":true,"internalType":"address"}],"anonymous":false},{"type":"event","name":"RoleAdminChanged","inputs":[{"name":"role","type":"bytes32","indexed":true,"internalType":"bytes32"},{"name":"previousAdminRole","type":"bytes32","indexed":true,"internalType":"bytes32"},{"name":"newAdminRole","type":"bytes32","indexed":true,"internalType":"bytes32"}],"anonymous":false},{"type":"event","name":"RoleGranted","inputs":[{"name":"role","type":"bytes32","indexed":true,"internalType":"bytes32"},{"name":"account","type":"address","indexed":true,"internalType":"address"},{"name":"sender","type":"address","indexed":true,"internalType":"address"}],"anonymous":false},{"type":"event","name":"RoleRevoked","inputs":[{"name":"role","type":"bytes32","indexed":true,"internalType":"bytes32"},{"name":"account","type":"address","indexed":true,"internalType":"address"},{"name":"sender","type":"address","indexed":true,"internalType":"address"}],"anonymous":false},{"type":"event","name":"Transfer","inputs":[{"name":"from","type":"address","indexed":true,"internalType":"address"},{"name":"to","type":"address","indexed":true,"internalType":"address"},{"name":"tokenId","type":"uint256","indexed":true,"internalType":"uint256"}],"anonymous":false},{"type":"event","name":"URIUpdated","inputs":[{"name":"_uri","type":"string","indexed":false,"internalType":"string"},{"name":"_tokenId","type":"uint256","indexed":true,"internalType":"uint256"}],"anonymous":false},{"type":"error","name":"AccessControlBadConfirmation","inputs":[]},{"type":"error","name":"AccessControlUnauthorizedAccount","inputs":[{"name":"account","type":"address","internalType":"address"},{"name":"neededRole","type":"bytes32","internalType":"bytes32"}]},{"type":"error","name":"ERC721IncorrectOwner","inputs":[{"name":"sender","type":"address","internalType":"address"},{"name":"tokenId","type":"uint256","internalType":"uint256"},{"name":"owner","type":"address","internalType":"address"}]},{"type":"error","name":"ERC721InsufficientApproval","inputs":[{"name":"operator","type":"address","internalType":"address"},{"name":"tokenId","type":"uint256","internalType":"uint256"}]},{"type":"error","name":"ERC721InvalidApprover","inputs":[{"name":"approver","type":"address","internalType":"address"}]},{"type":"error","name":"ERC721InvalidOperator","inputs":[{"name":"operator","type":"address","internalType":"address"}]},{"type":"error","name":"ERC721InvalidOwner","inputs":[{"name":"owner","type":"address","internalType":"address"}]},{"type":"error","name":"ERC721InvalidReceiver","inputs":[{"name":"receiver","type":"address","internalType":"address"}]},{"type":"error","name":"ERC721InvalidSender","inputs":[{"name":"sender","type":"address","internalType":"address"}]},{"type":"error","name":"ERC721NonexistentToken","inputs":[{"name":"tokenId","type":"uint256","internalType":"uint256"}]},{"type":"error","name":"OwnableInvalidOwner","inputs":[{"name":"owner","type":"address","internalType":"address"}]},{"type":"error","name":"OwnableUnauthorizedAccount","inputs":[{"name":"account","type":"address","internalType":"address"}]},{"type":"error","name":"ReentrancyGuardReentrantCall","inputs":[]}],"bytecode":{"object":"0x60806040526103e8600e553480156200001757600080fd5b5060405162002b5f38038062002b5f8339810160408190526200003a9162000179565b604080518082018252600f8082526e4f6e636861696e204c6f746572696160881b602080840182905284518086019095529184529083015233916000620000828382620002df565b506001620000918282620002df565b5050506001600160a01b038116620000c357604051631e4fbdf760e01b81526000600482015260240160405180910390fd5b620000ce8162000111565b506001600855600a620000e28282620002df565b5050600654600b80546001600160a01b0319166001600160a01b039092169190911790556001600c55620003ab565b600680546001600160a01b038381166001600160a01b0319831681179093556040519116919082907f8be0079c531659141344cd1fd0a4f28419497f9722a3daafe3b4186f6b6457e090600090a35050565b634e487b7160e01b600052604160045260246000fd5b600060208083850312156200018d57600080fd5b82516001600160401b0380821115620001a557600080fd5b818501915085601f830112620001ba57600080fd5b815181811115620001cf57620001cf62000163565b604051601f8201601f19908116603f01168101908382118183101715620001fa57620001fa62000163565b8160405282815288868487010111156200021357600080fd5b600093505b8284101562000237578484018601518185018701529285019262000218565b600086848301015280965050505050505092915050565b600181811c908216806200026357607f821691505b6020821081036200028457634e487b7160e01b600052602260045260246000fd5b50919050565b601f821115620002da576000816000526020600020601f850160051c81016020861015620002b55750805b601f850160051c820191505b81811015620002d657828155600101620002c1565b5050505b505050565b81516001600160401b03811115620002fb57620002fb62000163565b62000313816200030c84546200024e565b846200028a565b602080601f8311600181146200034b5760008415620003325750858301515b600019600386901b1c1916600185901b178555620002d6565b600085815260208120601f198616915b828110156200037c578886015182559484019460019091019084016200035b565b50858210156200039b5787850151600019600388901b60f8161c191681555b5050505050600190811b01905550565b6127a480620003bb6000396000f3fe6080604052600436106102855760003560e01c806370a0823111610153578063b88d4fde116100cb578063e8a3d4851161007f578063f2fde38b11610064578063f2fde38b14610759578063f4a0a52814610779578063f64682511461079957600080fd5b8063e8a3d485146106fb578063e985e9c51461071057600080fd5b8063ca7dd375116100b0578063ca7dd3751461069b578063d547741f146106bb578063e2e784d5146106db57600080fd5b8063b88d4fde1461065b578063c87b56dd1461067b57600080fd5b8063926427441161012257806395d89b411161010757806395d89b4114610611578063a217fddf14610626578063a22cb4651461063b57600080fd5b806392642744146105de578063938e3d7b146105f157600080fd5b806370a0823114610545578063715018a6146105655780638da5cb5b1461057a57806391d148541461059857600080fd5b80632f2ff15d116102015780636352211e116101b55780636817c76c1161019a5780636817c76c146104ed5780636f26d9ae14610503578063707129391461052557600080fd5b80636352211e146104ad57806363759d4c146104cd57600080fd5b80633ccfd60b116101e65780633ccfd60b1461045857806342842e0e1461046d57806342f1181e1461048d57600080fd5b80632f2ff15d1461041857806336568abe1461043857600080fd5b8063162094c41161025857806323b872dd1161023d57806323b872dd1461037b578063248a9ca31461039b5780632a55205a146103d957600080fd5b8063162094c41461033b5780631675f4551461035b57600080fd5b806301ffc9a71461028a57806306fdde03146102bf578063081812fc146102e1578063095ea7b314610319575b600080fd5b34801561029657600080fd5b506102aa6102a536600461203a565b6107cd565b60405190151581526020015b60405180910390f35b3480156102cb57600080fd5b506102d4610829565b6040516102b691906120bb565b3480156102ed57600080fd5b506103016102fc3660046120ce565b6108bb565b6040516001600160a01b0390911681526020016102b6565b34801561032557600080fd5b50610339610334366004612103565b6108e4565b005b34801561034757600080fd5b50610339610356366004612210565b6108f3565b34801561036757600080fd5b506102d46103763660046120ce565b610acd565b34801561038757600080fd5b50610339610396366004612257565b610b67565b3480156103a757600080fd5b506103cb6103b63660046120ce565b60009081526007602052604090206001015490565b6040519081526020016102b6565b3480156103e557600080fd5b506103f96103f4366004612293565b610c24565b604080516001600160a01b0390931683526020830191909152016102b6565b34801561042457600080fd5b506103396104333660046122b5565b610c57565b34801561044457600080fd5b506103396104533660046122b5565b610c7c565b34801561046457600080fd5b50610339610cc8565b34801561047957600080fd5b50610339610488366004612257565b610e3f565b34801561049957600080fd5b506103396104a83660046122e1565b610e5a565b3480156104b957600080fd5b506103016104c83660046120ce565b610e9f565b3480156104d957600080fd5b506102aa6104e83660046122e1565b610eaa565b3480156104f957600080fd5b506103cb600e5481565b34801561050f57600080fd5b50610518610eea565b6040516102b691906122fc565b34801561053157600080fd5b506103396105403660046122e1565b610f41565b34801561055157600080fd5b506103cb6105603660046122e1565b610fa8565b34801561057157600080fd5b50610339611009565b34801561058657600080fd5b506006546001600160a01b0316610301565b3480156105a457600080fd5b506102aa6105b33660046122b5565b60009182526007602090815260408084206001600160a01b0393909316845291905290205460ff1690565b6103396105ec3660046120ce565b61101d565b3480156105fd57600080fd5b5061033961060c366004612340565b611192565b34801561061d57600080fd5b506102d46111d0565b34801561063257600080fd5b506103cb600081565b34801561064757600080fd5b50610339610656366004612375565b6111df565b34801561066757600080fd5b506103396106763660046123b1565b6111ea565b34801561068757600080fd5b506102d46106963660046120ce565b611201565b3480156106a757600080fd5b506103cb6106b63660046120ce565b6112a3565b3480156106c757600080fd5b506103396106d63660046122b5565b61138a565b3480156106e757600080fd5b506103396106f6366004612103565b6113af565b34801561070757600080fd5b506102d4611423565b34801561071c57600080fd5b506102aa61072b36600461242d565b6001600160a01b03918216600090815260056020908152604080832093909416825291909152205460ff1690565b34801561076557600080fd5b506103396107743660046122e1565b611432565b34801561078557600080fd5b506103396107943660046120ce565b611486565b3480156107a557600080fd5b506103cb7f0393b4c1b6519e8b53ae0efa1ab522060a3b9f8d86d09c8a22ca6d6eea735cf781565b60007fffffffff0000000000000000000000000000000000000000000000000000000082167f2a55205a0000000000000000000000000000000000000000000000000000000014806108235750610823826114c7565b92915050565b60606000805461083890612457565b80601f016020809104026020016040519081016040528092919081815260200182805461086490612457565b80156108b15780601f10610886576101008083540402835291602001916108b1565b820191906000526020600020905b81548152906001019060200180831161089457829003601f168201915b5050505050905090565b60006108c68261151d565b506000828152600460205260409020546001600160a01b0316610823565b6108ef82823361156f565b5050565b7f0393b4c1b6519e8b53ae0efa1ab522060a3b9f8d86d09c8a22ca6d6eea735cf761091d8161157c565b610925611586565b6000805b600f548110156109d95784600f8281548110610947576109476124aa565b9060005260206000200154036109d157600f805461096790600190612508565b81548110610977576109776124aa565b9060005260206000200154600f8281548110610995576109956124aa565b600091825260209091200155600f8054806109b2576109b261251b565b60019003818190600052602060002001600090559055600191506109d9565b600101610929565b5080610a6c576040517f08c379a000000000000000000000000000000000000000000000000000000000815260206004820152602560248201527f546f6b656e206e6f7420666f756e64206f7220616c726561647920686173206160448201527f205552492e00000000000000000000000000000000000000000000000000000060648201526084015b60405180910390fd5b6000848152600d60205260409020610a84848261259a565b50837f8e9e57f76717c62e98cc2cacc24a47ceb059955f5bfd134c59fd6bc1c04dc67784604051610ab591906120bb565b60405180910390a250610ac86001600855565b505050565b600d6020526000908152604090208054610ae690612457565b80601f0160208091040260200160405190810160405280929190818152602001828054610b1290612457565b8015610b5f5780601f10610b3457610100808354040283529160200191610b5f565b820191906000526020600020905b815481529060010190602001808311610b4257829003601f168201915b505050505081565b6001600160a01b038216610baa576040517f64a0ae9200000000000000000000000000000000000000000000000000000000815260006004820152602401610a63565b6000610bb78383336115c9565b9050836001600160a01b0316816001600160a01b031614610c1e576040517f64283d7b0000000000000000000000000000000000000000000000000000000081526001600160a01b0380861660048301526024820184905282166044820152606401610a63565b50505050565b6000806064600c5484610c3791906126b4565b610c4191906126cb565b600b546001600160a01b03169590945092505050565b600082815260076020526040902060010154610c728161157c565b610c1e83836116f8565b6001600160a01b0381163314610cbe576040517f6697b23200000000000000000000000000000000000000000000000000000000815260040160405180910390fd5b610ac882826117c4565b7f0393b4c1b6519e8b53ae0efa1ab522060a3b9f8d86d09c8a22ca6d6eea735cf7610cf28161157c565b610cfa611586565b4780610d62576040517f08c379a000000000000000000000000000000000000000000000000000000000815260206004820152601960248201527f4e6f206574686572206c65667420746f207769746864726177000000000000006044820152606401610a63565b6000610d766006546001600160a01b031690565b6001600160a01b03168260405160006040518083038185875af1925050503d8060008114610dc0576040519150601f19603f3d011682016040523d82523d6000602084013e610dc5565b606091505b5050905080610e30576040517f08c379a000000000000000000000000000000000000000000000000000000000815260206004820152601060248201527f5472616e73666572206661696c65642e000000000000000000000000000000006044820152606401610a63565b5050610e3c6001600855565b50565b610ac8838383604051806020016040528060008152506111ea565b610e62611869565b610e6a611586565b610e947f0393b4c1b6519e8b53ae0efa1ab522060a3b9f8d86d09c8a22ca6d6eea735cf7826116f8565b50610e3c6001600855565b60006108238261151d565b6001600160a01b03811660009081527f8d5cfb28b96d7d341f0c3ff58430970fc636faea98a418faad59a72259761ef4602052604081205460ff16610823565b6060600f8054806020026020016040519081016040528092919081815260200182805480156108b157602002820191906000526020600020905b815481526020019060010190808311610f24575050505050905090565b7f0393b4c1b6519e8b53ae0efa1ab522060a3b9f8d86d09c8a22ca6d6eea735cf7610f6b8161157c565b610f73611586565b610f9d7f0393b4c1b6519e8b53ae0efa1ab522060a3b9f8d86d09c8a22ca6d6eea735cf7836117c4565b506108ef6001600855565b60006001600160a01b038216610fed576040517f89c62b6400000000000000000000000000000000000000000000000000000000815260006004820152602401610a63565b506001600160a01b031660009081526003602052604090205490565b611011611869565b61101b60006118af565b565b611025611586565b6000611030826112a3565b90508034146110c1576040517f08c379a000000000000000000000000000000000000000000000000000000000815260206004820152603360248201527f506c65617365207375626d697420746865206578616374206d696e74696e672060448201527f66656520666f72207468652062756e646c652e000000000000000000000000006064820152608401610a63565b33611128576040517f08c379a000000000000000000000000000000000000000000000000000000000815260206004820181905260248201527f43616e6e6f74206d696e7420746f20746865207a65726f20616464726573732e6044820152606401610a63565b60005b82811015610e30576009805490600061114383612706565b90915550506009546111553382611919565b600f8054600181810183556000929092527f8d1108e10bcb7c27dddfc02ed9d693a074039d026cf4ea4240b40f7d581ac80201919091550161112b565b7f0393b4c1b6519e8b53ae0efa1ab522060a3b9f8d86d09c8a22ca6d6eea735cf76111bc8161157c565b6111c4611586565b600a610f9d838261259a565b60606001805461083890612457565b6108ef3383836119b0565b6111f5848484610b67565b610c1e84848484611a86565b6000818152600d6020526040902080546060919061121e90612457565b80601f016020809104026020016040519081016040528092919081815260200182805461124a90612457565b80156112975780601f1061126c57610100808354040283529160200191611297565b820191906000526020600020905b81548152906001019060200180831161127a57829003601f168201915b50505050509050919050565b6000620f4240600a8390036112e857806112bf6103e882612508565b84600e546112cd91906126b4565b6112d791906126b4565b6112e191906126cb565b9392505050565b826019036112fd57806112bf6109c482612508565b8260640361131257806112bf61138882612508565b826001036113285782600e546112e191906126b4565b6040517f08c379a000000000000000000000000000000000000000000000000000000000815260206004820152601060248201527f496e76616c6964207175616e74697479000000000000000000000000000000006044820152606401610a63565b6000828152600760205260409020600101546113a58161157c565b610c1e83836117c4565b7f0393b4c1b6519e8b53ae0efa1ab522060a3b9f8d86d09c8a22ca6d6eea735cf76113d98161157c565b6113e1611586565b600b80547fffffffffffffffffffffffff0000000000000000000000000000000000000000166001600160a01b038516179055600c8290556001600855505050565b6060600a805461083890612457565b61143a611869565b6001600160a01b03811661147d576040517f1e4fbdf700000000000000000000000000000000000000000000000000000000815260006004820152602401610a63565b610e3c816118af565b7f0393b4c1b6519e8b53ae0efa1ab522060a3b9f8d86d09c8a22ca6d6eea735cf76114b08161157c565b6114b8611586565b600e8290556108ef6001600855565b60007fffffffff0000000000000000000000000000000000000000000000000000000082167f7965db0b000000000000000000000000000000000000000000000000000000001480610823575061082382611c49565b6000818152600260205260408120546001600160a01b031680610823576040517f7e27328900000000000000000000000000000000000000000000000000000000815260048101849052602401610a63565b610ac88383836001611d2c565b610e3c8133611e82565b6002600854036115c2576040517f3ee5aeb500000000000000000000000000000000000000000000000000000000815260040160405180910390fd5b6002600855565b6000828152600260205260408120546001600160a01b03908116908316156115f6576115f6818486611ef0565b6001600160a01b0381161561165257611613600085600080611d2c565b6001600160a01b038116600090815260036020526040902080547fffffffffffffffffffffffffffffffffffffffffffffffffffffffffffffffff0190555b6001600160a01b03851615611681576001600160a01b0385166000908152600360205260409020805460010190555b60008481526002602052604080822080547fffffffffffffffffffffffff0000000000000000000000000000000000000000166001600160a01b0389811691821790925591518793918516917fddf252ad1be2c89b69c2b068fc378daa952ba7f163c4a11628f55a4df523b3ef91a4949350505050565b60008281526007602090815260408083206001600160a01b038516845290915281205460ff166117bc5760008381526007602090815260408083206001600160a01b0386168452909152902080547fffffffffffffffffffffffffffffffffffffffffffffffffffffffffffffff001660011790556117743390565b6001600160a01b0316826001600160a01b0316847f2f8788117e7eff1d82e926ec794901d17c78024a50270940304540a733656f0d60405160405180910390a4506001610823565b506000610823565b60008281526007602090815260408083206001600160a01b038516845290915281205460ff16156117bc5760008381526007602090815260408083206001600160a01b038616808552925280832080547fffffffffffffffffffffffffffffffffffffffffffffffffffffffffffffff0016905551339286917ff6391f5c32d9c69d2a47ea670b442974b53935d1edc7fd64eb21e047a839171b9190a4506001610823565b6006546001600160a01b0316331461101b576040517f118cdaa7000000000000000000000000000000000000000000000000000000008152336004820152602401610a63565b600680546001600160a01b038381167fffffffffffffffffffffffff0000000000000000000000000000000000000000831681179093556040519116919082907f8be0079c531659141344cd1fd0a4f28419497f9722a3daafe3b4186f6b6457e090600090a35050565b6001600160a01b03821661195c576040517f64a0ae9200000000000000000000000000000000000000000000000000000000815260006004820152602401610a63565b600061196a838360006115c9565b90506001600160a01b03811615610ac8576040517f73c6ac6e00000000000000000000000000000000000000000000000000000000815260006004820152602401610a63565b6001600160a01b0382166119fb576040517f5b08ba180000000000000000000000000000000000000000000000000000000081526001600160a01b0383166004820152602401610a63565b6001600160a01b0383811660008181526005602090815260408083209487168084529482529182902080547fffffffffffffffffffffffffffffffffffffffffffffffffffffffffffffff001686151590811790915591519182527f17307eab39ab6107e8899845ad3d59bd9653f200f220920489ca2b5937696c31910160405180910390a3505050565b6001600160a01b0383163b15610c1e576040517f150b7a020000000000000000000000000000000000000000000000000000000081526001600160a01b0384169063150b7a0290611ae190339088908790879060040161273e565b6020604051808303816000875af1925050508015611b3a575060408051601f3d9081017fffffffffffffffffffffffffffffffffffffffffffffffffffffffffffffffe0168201909252611b379181019061277a565b60015b611bbc573d808015611b68576040519150601f19603f3d011682016040523d82523d6000602084013e611b6d565b606091505b508051600003611bb4576040517f64a0ae920000000000000000000000000000000000000000000000000000000081526001600160a01b0385166004820152602401610a63565b805181602001fd5b7fffffffff0000000000000000000000000000000000000000000000000000000081167f150b7a020000000000000000000000000000000000000000000000000000000014611c42576040517f64a0ae920000000000000000000000000000000000000000000000000000000081526001600160a01b0385166004820152602401610a63565b5050505050565b60007fffffffff0000000000000000000000000000000000000000000000000000000082167f80ac58cd000000000000000000000000000000000000000000000000000000001480611cdc57507fffffffff0000000000000000000000000000000000000000000000000000000082167f5b5e139f00000000000000000000000000000000000000000000000000000000145b8061082357507f01ffc9a7000000000000000000000000000000000000000000000000000000007fffffffff00000000000000000000000000000000000000000000000000000000831614610823565b8080611d4057506001600160a01b03821615155b15611e3a576000611d508461151d565b90506001600160a01b03831615801590611d7c5750826001600160a01b0316816001600160a01b031614155b8015611dae57506001600160a01b0380821660009081526005602090815260408083209387168352929052205460ff16155b15611df0576040517fa9fbf51f0000000000000000000000000000000000000000000000000000000081526001600160a01b0384166004820152602401610a63565b8115611e385783856001600160a01b0316826001600160a01b03167f8c5be1e5ebec7d5bd14f71427d1e84f3dd0314c0f7b2291e5b200ac8c7c3b92560405160405180910390a45b505b5050600090815260046020526040902080547fffffffffffffffffffffffff0000000000000000000000000000000000000000166001600160a01b0392909216919091179055565b60008281526007602090815260408083206001600160a01b038516845290915290205460ff166108ef576040517fe2517d3f0000000000000000000000000000000000000000000000000000000081526001600160a01b038216600482015260248101839052604401610a63565b611efb838383611f86565b610ac8576001600160a01b038316611f42576040517f7e27328900000000000000000000000000000000000000000000000000000000815260048101829052602401610a63565b6040517f177e802f0000000000000000000000000000000000000000000000000000000081526001600160a01b038316600482015260248101829052604401610a63565b60006001600160a01b038316158015906120045750826001600160a01b0316846001600160a01b03161480611fe057506001600160a01b0380851660009081526005602090815260408083209387168352929052205460ff165b8061200457506000828152600460205260409020546001600160a01b038481169116145b949350505050565b7fffffffff0000000000000000000000000000000000000000000000000000000081168114610e3c57600080fd5b60006020828403121561204c57600080fd5b81356112e18161200c565b6000815180845260005b8181101561207d57602081850181015186830182015201612061565b5060006020828601015260207fffffffffffffffffffffffffffffffffffffffffffffffffffffffffffffffe0601f83011685010191505092915050565b6020815260006112e16020830184612057565b6000602082840312156120e057600080fd5b5035919050565b80356001600160a01b03811681146120fe57600080fd5b919050565b6000806040838503121561211657600080fd5b61211f836120e7565b946020939093013593505050565b7f4e487b7100000000000000000000000000000000000000000000000000000000600052604160045260246000fd5b600067ffffffffffffffff808411156121775761217761212d565b604051601f85017fffffffffffffffffffffffffffffffffffffffffffffffffffffffffffffffe0908116603f011681019082821181831017156121bd576121bd61212d565b816040528093508581528686860111156121d657600080fd5b858560208301376000602087830101525050509392505050565b600082601f83011261220157600080fd5b6112e18383356020850161215c565b6000806040838503121561222357600080fd5b82359150602083013567ffffffffffffffff81111561224157600080fd5b61224d858286016121f0565b9150509250929050565b60008060006060848603121561226c57600080fd5b612275846120e7565b9250612283602085016120e7565b9150604084013590509250925092565b600080604083850312156122a657600080fd5b50508035926020909101359150565b600080604083850312156122c857600080fd5b823591506122d8602084016120e7565b90509250929050565b6000602082840312156122f357600080fd5b6112e1826120e7565b6020808252825182820181905260009190848201906040850190845b8181101561233457835183529284019291840191600101612318565b50909695505050505050565b60006020828403121561235257600080fd5b813567ffffffffffffffff81111561236957600080fd5b612004848285016121f0565b6000806040838503121561238857600080fd5b612391836120e7565b9150602083013580151581146123a657600080fd5b809150509250929050565b600080600080608085870312156123c757600080fd5b6123d0856120e7565b93506123de602086016120e7565b925060408501359150606085013567ffffffffffffffff81111561240157600080fd5b8501601f8101871361241257600080fd5b6124218782356020840161215c565b91505092959194509250565b6000806040838503121561244057600080fd5b612449836120e7565b91506122d8602084016120e7565b600181811c9082168061246b57607f821691505b6020821081036124a4577f4e487b7100000000000000000000000000000000000000000000000000000000600052602260045260246000fd5b50919050565b7f4e487b7100000000000000000000000000000000000000000000000000000000600052603260045260246000fd5b7f4e487b7100000000000000000000000000000000000000000000000000000000600052601160045260246000fd5b81810381811115610823576108236124d9565b7f4e487b7100000000000000000000000000000000000000000000000000000000600052603160045260246000fd5b601f821115610ac8576000816000526020600020601f850160051c810160208610156125735750805b601f850160051c820191505b818110156125925782815560010161257f565b505050505050565b815167ffffffffffffffff8111156125b4576125b461212d565b6125c8816125c28454612457565b8461254a565b602080601f83116001811461261b57600084156125e55750858301515b7fffffffffffffffffffffffffffffffffffffffffffffffffffffffffffffffff600386901b1c1916600185901b178555612592565b6000858152602081207fffffffffffffffffffffffffffffffffffffffffffffffffffffffffffffffe08616915b8281101561266857888601518255948401946001909101908401612649565b50858210156126a457878501517fffffffffffffffffffffffffffffffffffffffffffffffffffffffffffffffff600388901b60f8161c191681555b5050505050600190811b01905550565b8082028115828204841417610823576108236124d9565b600082612701577f4e487b7100000000000000000000000000000000000000000000000000000000600052601260045260246000fd5b500490565b60007fffffffffffffffffffffffffffffffffffffffffffffffffffffffffffffffff8203612737576127376124d9565b5060010190565b60006001600160a01b038087168352808616602084015250836040830152608060608301526127706080830184612057565b9695505050505050565b60006020828403121561278c57600080fd5b81516112e18161200c56fea164736f6c6343000817000a","linkReferences":{}},"methodIdentifiers":{"AUTHORIZED_ROLE()":"f6468251","DEFAULT_ADMIN_ROLE()":"a217fddf","addAuthorizedAddress(address)":"42f1181e","approve(address,uint256)":"095ea7b3","balanceOf(address)":"70a08231","contractURI()":"e8a3d485","getApproved(uint256)":"081812fc","getBoardlessTokens()":"6f26d9ae","getRoleAdmin(bytes32)":"248a9ca3","getTotalPrice(uint256)":"ca7dd375","grantRole(bytes32,address)":"2f2ff15d","hasAuthorizedAddress(address)":"63759d4c","hasRole(bytes32,address)":"91d14854","isApprovedForAll(address,address)":"e985e9c5","mintNFT(uint256)":"92642744","mintPrice()":"6817c76c","name()":"06fdde03","owner()":"8da5cb5b","ownerOf(uint256)":"6352211e","removeAuthorizedAddress(address)":"70712939","renounceOwnership()":"715018a6","renounceRole(bytes32,address)":"36568abe","revokeRole(bytes32,address)":"d547741f","royaltyInfo(uint256,uint256)":"2a55205a","safeTransferFrom(address,address,uint256)":"42842e0e","safeTransferFrom(address,address,uint256,bytes)":"b88d4fde","setApprovalForAll(address,bool)":"a22cb465","setContractURI(string)":"938e3d7b","setMintPrice(uint256)":"f4a0a528","setRoyaltyInfo(address,uint256)":"e2e784d5","setTokenURI(uint256,string)":"162094c4","supportsInterface(bytes4)":"01ffc9a7","symbol()":"95d89b41","tokenURI(uint256)":"c87b56dd","tokenUri(uint256)":"1675f455","transferFrom(address,address,uint256)":"23b872dd","transferOwnership(address)":"f2fde38b","withdraw()":"3ccfd60b"},"id":50}