{"abi":[{"type":"constructor","inputs":[{"name":"contractURI_","type":"string","internalType":"string"}],"stateMutability":"nonpayable"},{"type":"function","name":"AUTHORIZED_ROLE","inputs":[],"outputs":[{"name":"","type":"bytes32","internalType":"bytes32"}],"stateMutability":"view"},{"type":"function","name":"DEFAULT_ADMIN_ROLE","inputs":[],"outputs":[{"name":"","type":"bytes32","internalType":"bytes32"}],"stateMutability":"view"},{"type":"function","name":"addAuthorizedAddress","inputs":[{"name":"authorizedAddress","type":"address","internalType":"address"}],"outputs":[],"stateMutability":"nonpayable"},{"type":"function","name":"airdrop","inputs":[{"name":"_player","type":"address","internalType":"address"}],"outputs":[],"stateMutability":"nonpayable"},{"type":"function","name":"approve","inputs":[{"name":"to","type":"address","internalType":"address"},{"name":"tokenId","type":"uint256","internalType":"uint256"}],"outputs":[],"stateMutability":"nonpayable"},{"type":"function","name":"balanceOf","inputs":[{"name":"owner","type":"address","internalType":"address"}],"outputs":[{"name":"","type":"uint256","internalType":"uint256"}],"stateMutability":"view"},{"type":"function","name":"contractURI","inputs":[],"outputs":[{"name":"","type":"string","internalType":"string"}],"stateMutability":"view"},{"type":"function","name":"getApproved","inputs":[{"name":"tokenId","type":"uint256","internalType":"uint256"}],"outputs":[{"name":"","type":"address","internalType":"address"}],"stateMutability":"view"},{"type":"function","name":"getBoardlessTokens","inputs":[],"outputs":[{"name":"","type":"uint256[]","internalType":"uint256[]"}],"stateMutability":"view"},{"type":"function","name":"getRoleAdmin","inputs":[{"name":"role","type":"bytes32","internalType":"bytes32"}],"outputs":[{"name":"","type":"bytes32","internalType":"bytes32"}],"stateMutability":"view"},{"type":"function","name":"getTotalPrice","inputs":[{"name":"quantity","type":"uint256","internalType":"uint256"}],"outputs":[{"name":"totalPrice","type":"uint256","internalType":"uint256"}],"stateMutability":"view"},{"type":"function","name":"grantRole","inputs":[{"name":"role","type":"bytes32","internalType":"bytes32"},{"name":"account","type":"address","internalType":"address"}],"outputs":[],"stateMutability":"nonpayable"},{"type":"function","name":"hasAuthorizedAddress","inputs":[{"name":"authorizedAddress","type":"address","internalType":"address"}],"outputs":[{"name":"","type":"bool","internalType":"bool"}],"stateMutability":"view"},{"type":"function","name":"hasRole","inputs":[{"name":"role","type":"bytes32","internalType":"bytes32"},{"name":"account","type":"address","internalType":"address"}],"outputs":[{"name":"","type":"bool","internalType":"bool"}],"stateMutability":"view"},{"type":"function","name":"isApprovedForAll","inputs":[{"name":"owner","type":"address","internalType":"address"},{"name":"operator","type":"address","internalType":"address"}],"outputs":[{"name":"","type":"bool","internalType":"bool"}],"stateMutability":"view"},{"type":"function","name":"mintNFT","inputs":[{"name":"quantity","type":"uint256","internalType":"uint256"}],"outputs":[],"stateMutability":"payable"},{"type":"function","name":"mintPrice","inputs":[],"outputs":[{"name":"","type":"uint256","internalType":"uint256"}],"stateMutability":"view"},{"type":"function","name":"name","inputs":[],"outputs":[{"name":"","type":"string","internalType":"string"}],"stateMutability":"view"},{"type":"function","name":"owner","inputs":[],"outputs":[{"name":"","type":"address","internalType":"address"}],"stateMutability":"view"},{"type":"function","name":"ownerOf","inputs":[{"name":"tokenId","type":"uint256","internalType":"uint256"}],"outputs":[{"name":"","type":"address","internalType":"address"}],"stateMutability":"view"},{"type":"function","name":"removeAuthorizedAddress","inputs":[{"name":"authorizedAddress","type":"address","internalType":"address"}],"outputs":[],"stateMutability":"nonpayable"},{"type":"function","name":"renounceOwnership","inputs":[],"outputs":[],"stateMutability":"nonpayable"},{"type":"function","name":"renounceRole","inputs":[{"name":"role","type":"bytes32","internalType":"bytes32"},{"name":"callerConfirmation","type":"address","internalType":"address"}],"outputs":[],"stateMutability":"nonpayable"},{"type":"function","name":"revokeRole","inputs":[{"name":"role","type":"bytes32","internalType":"bytes32"},{"name":"account","type":"address","internalType":"address"}],"outputs":[],"stateMutability":"nonpayable"},{"type":"function","name":"royaltyInfo","inputs":[{"name":"","type":"uint256","internalType":"uint256"},{"name":"salePrice","type":"uint256","internalType":"uint256"}],"outputs":[{"name":"receiver","type":"address","internalType":"address"},{"name":"royaltyAmount","type":"uint256","internalType":"uint256"}],"stateMutability":"view"},{"type":"function","name":"safeTransferFrom","inputs":[{"name":"from","type":"address","internalType":"address"},{"name":"to","type":"address","internalType":"address"},{"name":"tokenId","type":"uint256","internalType":"uint256"}],"outputs":[],"stateMutability":"nonpayable"},{"type":"function","name":"safeTransferFrom","inputs":[{"name":"from","type":"address","internalType":"address"},{"name":"to","type":"address","internalType":"address"},{"name":"tokenId","type":"uint256","internalType":"uint256"},{"name":"data","type":"bytes","internalType":"bytes"}],"outputs":[],"stateMutability":"nonpayable"},{"type":"function","name":"setApprovalForAll","inputs":[{"name":"operator","type":"address","internalType":"address"},{"name":"approved","type":"bool","internalType":"bool"}],"outputs":[],"stateMutability":"nonpayable"},{"type":"function","name":"setContractURI","inputs":[{"name":"contractURI_","type":"string","internalType":"string"}],"outputs":[],"stateMutability":"nonpayable"},{"type":"function","name":"setMintPrice","inputs":[{"name":"_newMintPrice","type":"uint256","internalType":"uint256"}],"outputs":[],"stateMutability":"nonpayable"},{"type":"function","name":"setRoyaltyInfo","inputs":[{"name":"recipient","type":"address","internalType":"address"},{"name":"percentage","type":"uint256","internalType":"uint256"}],"outputs":[],"stateMutability":"nonpayable"},{"type":"function","name":"setTokenURI","inputs":[{"name":"_tokenId","type":"uint256","internalType":"uint256"},{"name":"_uri","type":"string","internalType":"string"}],"outputs":[],"stateMutability":"nonpayable"},{"type":"function","name":"supportsInterface","inputs":[{"name":"interfaceId","type":"bytes4","internalType":"bytes4"}],"outputs":[{"name":"","type":"bool","internalType":"bool"}],"stateMutability":"view"},{"type":"function","name":"symbol","inputs":[],"outputs":[{"name":"","type":"string","internalType":"string"}],"stateMutability":"view"},{"type":"function","name":"tokenURI","inputs":[{"name":"_tokenId","type":"uint256","internalType":"uint256"}],"outputs":[{"name":"","type":"string","internalType":"string"}],"stateMutability":"view"},{"type":"function","name":"tokenUri","inputs":[{"name":"","type":"uint256","internalType":"uint256"}],"outputs":[{"name":"","type":"string","internalType":"string"}],"stateMutability":"view"},{"type":"function","name":"totalSupply","inputs":[],"outputs":[{"name":"","type":"uint256","internalType":"uint256"}],"stateMutability":"view"},{"type":"function","name":"transferFrom","inputs":[{"name":"from","type":"address","internalType":"address"},{"name":"to","type":"address","internalType":"address"},{"name":"tokenId","type":"uint256","internalType":"uint256"}],"outputs":[],"stateMutability":"nonpayable"},{"type":"function","name":"transferOwnership","inputs":[{"name":"newOwner","type":"address","internalType":"address"}],"outputs":[],"stateMutability":"nonpayable"},{"type":"function","name":"uri","inputs":[{"name":"tokenId","type":"uint256","internalType":"uint256"}],"outputs":[{"name":"","type":"string","internalType":"string"}],"stateMutability":"view"},{"type":"function","name":"withdraw","inputs":[],"outputs":[],"stateMutability":"nonpayable"},{"type":"event","name":"AirdropMint","inputs":[{"name":"recipient","type":"address","indexed":true,"internalType":"address"},{"name":"tokenId","type":"uint256","indexed":true,"internalType":"uint256"}],"anonymous":false},{"type":"event","name":"Approval","inputs":[{"name":"owner","type":"address","indexed":true,"internalType":"address"},{"name":"approved","type":"address","indexed":true,"internalType":"address"},{"name":"tokenId","type":"uint256","indexed":true,"internalType":"uint256"}],"anonymous":false},{"type":"event","name":"ApprovalForAll","inputs":[{"name":"owner","type":"address","indexed":true,"internalType":"address"},{"name":"operator","type":"address","indexed":true,"internalType":"address"},{"name":"approved","type":"bool","indexed":false,"internalType":"bool"}],"anonymous":false},{"type":"event","name":"OwnershipTransferred","inputs":[{"name":"previousOwner","type":"address","indexed":true,"internalType":"address"},{"name":"newOwner","type":"address","indexed":true,"internalType":"address"}],"anonymous":false},{"type":"event","name":"RoleAdminChanged","inputs":[{"name":"role","type":"bytes32","indexed":true,"internalType":"bytes32"},{"name":"previousAdminRole","type":"bytes32","indexed":true,"internalType":"bytes32"},{"name":"newAdminRole","type":"bytes32","indexed":true,"internalType":"bytes32"}],"anonymous":false},{"type":"event","name":"RoleGranted","inputs":[{"name":"role","type":"bytes32","indexed":true,"internalType":"bytes32"},{"name":"account","type":"address","indexed":true,"internalType":"address"},{"name":"sender","type":"address","indexed":true,"internalType":"address"}],"anonymous":false},{"type":"event","name":"RoleRevoked","inputs":[{"name":"role","type":"bytes32","indexed":true,"internalType":"bytes32"},{"name":"account","type":"address","indexed":true,"internalType":"address"},{"name":"sender","type":"address","indexed":true,"internalType":"address"}],"anonymous":false},{"type":"event","name":"Transfer","inputs":[{"name":"from","type":"address","indexed":true,"internalType":"address"},{"name":"to","type":"address","indexed":true,"internalType":"address"},{"name":"tokenId","type":"uint256","indexed":true,"internalType":"uint256"}],"anonymous":false},{"type":"event","name":"URIUpdated","inputs":[{"name":"_uri","type":"string","indexed":false,"internalType":"string"},{"name":"_tokenId","type":"uint256","indexed":true,"internalType":"uint256"}],"anonymous":false},{"type":"error","name":"AccessControlBadConfirmation","inputs":[]},{"type":"error","name":"AccessControlUnauthorizedAccount","inputs":[{"name":"account","type":"address","internalType":"address"},{"name":"neededRole","type":"bytes32","internalType":"bytes32"}]},{"type":"error","name":"ERC721IncorrectOwner","inputs":[{"name":"sender","type":"address","internalType":"address"},{"name":"tokenId","type":"uint256","internalType":"uint256"},{"name":"owner","type":"address","internalType":"address"}]},{"type":"error","name":"ERC721InsufficientApproval","inputs":[{"name":"operator","type":"address","internalType":"address"},{"name":"tokenId","type":"uint256","internalType":"uint256"}]},{"type":"error","name":"ERC721InvalidApprover","inputs":[{"name":"approver","type":"address","internalType":"address"}]},{"type":"error","name":"ERC721InvalidOperator","inputs":[{"name":"operator","type":"address","internalType":"address"}]},{"type":"error","name":"ERC721InvalidOwner","inputs":[{"name":"owner","type":"address","internalType":"address"}]},{"type":"error","name":"ERC721InvalidReceiver","inputs":[{"name":"receiver","type":"address","internalType":"address"}]},{"type":"error","name":"ERC721InvalidSender","inputs":[{"name":"sender","type":"address","internalType":"address"}]},{"type":"error","name":"ERC721NonexistentToken","inputs":[{"name":"tokenId","type":"uint256","internalType":"uint256"}]},{"type":"error","name":"OwnableInvalidOwner","inputs":[{"name":"owner","type":"address","internalType":"address"}]},{"type":"error","name":"OwnableUnauthorizedAccount","inputs":[{"name":"account","type":"address","internalType":"address"}]},{"type":"error","name":"ReentrancyGuardReentrantCall","inputs":[]}],"bytecode":{"object":"0x608060405266012309ce540000600e553480156200001c57600080fd5b5060405162002d5538038062002d558339810160408190526200003f916200025e565b604080518082018252600f8082526e4f6e636861696e204c6f746572696160881b602080840182905284518086019095529184529083015233916000620000878382620003c4565b506001620000968282620003c4565b5050506001600160a01b038116620000c857604051631e4fbdf760e01b81526000600482015260240160405180910390fd5b620000d38162000143565b506001600855600a620000e78282620003c4565b50600654600b80546001600160a01b0319166001600160a01b0390921691821790556001600c556200013b907f0393b4c1b6519e8b53ae0efa1ab522060a3b9f8d86d09c8a22ca6d6eea735cf79062000195565b505062000490565b600680546001600160a01b038381166001600160a01b0319831681179093556040519116919082907f8be0079c531659141344cd1fd0a4f28419497f9722a3daafe3b4186f6b6457e090600090a35050565b60008281526007602090815260408083206001600160a01b038516845290915281205460ff166200023e5760008381526007602090815260408083206001600160a01b03861684529091529020805460ff19166001179055620001f53390565b6001600160a01b0316826001600160a01b0316847f2f8788117e7eff1d82e926ec794901d17c78024a50270940304540a733656f0d60405160405180910390a450600162000242565b5060005b92915050565b634e487b7160e01b600052604160045260246000fd5b600060208083850312156200027257600080fd5b82516001600160401b03808211156200028a57600080fd5b818501915085601f8301126200029f57600080fd5b815181811115620002b457620002b462000248565b604051601f8201601f19908116603f01168101908382118183101715620002df57620002df62000248565b816040528281528886848701011115620002f857600080fd5b600093505b828410156200031c5784840186015181850187015292850192620002fd565b600086848301015280965050505050505092915050565b600181811c908216806200034857607f821691505b6020821081036200036957634e487b7160e01b600052602260045260246000fd5b50919050565b601f821115620003bf576000816000526020600020601f850160051c810160208610156200039a5750805b601f850160051c820191505b81811015620003bb57828155600101620003a6565b5050505b505050565b81516001600160401b03811115620003e057620003e062000248565b620003f881620003f1845462000333565b846200036f565b602080601f831160018114620004305760008415620004175750858301515b600019600386901b1c1916600185901b178555620003bb565b600085815260208120601f198616915b82811015620004615788860151825594840194600190910190840162000440565b5085821015620004805787850151600019600388901b60f8161c191681555b5050505050600190811b01905550565b6128b580620004a06000396000f3fe6080604052600436106102c65760003560e01c80636f26d9ae11610179578063a22cb465116100d6578063e2e784d51161008a578063f2fde38b11610064578063f2fde38b146107cb578063f4a0a528146107eb578063f64682511461080b57600080fd5b8063e2e784d51461074d578063e8a3d4851461076d578063e985e9c51461078257600080fd5b8063c87b56dd116100bb578063c87b56dd1461037c578063ca7dd3751461070d578063d547741f1461072d57600080fd5b8063a22cb465146106cd578063b88d4fde146106ed57600080fd5b806391d148541161012d578063938e3d7b11610112578063938e3d7b1461068357806395d89b41146106a3578063a217fddf146106b857600080fd5b806391d148541461062a578063926427441461067057600080fd5b806370a082311161015e57806370a08231146105d7578063715018a6146105f75780638da5cb5b1461060c57600080fd5b80636f26d9ae1461059557806370712939146105b757600080fd5b8063248a9ca31161022757806342842e0e116101db5780636352211e116101c05780636352211e1461053f57806363759d4c1461055f5780636817c76c1461057f57600080fd5b806342842e0e146104ff57806342f1181e1461051f57600080fd5b80632f2ff15d1161020c5780632f2ff15d146104aa57806336568abe146104ca5780633ccfd60b146104ea57600080fd5b8063248a9ca31461043b5780632a55205a1461046b57600080fd5b8063162094c41161027e57806318160ddd1161026357806318160ddd146103dc57806321860a05146103fb57806323b872dd1461041b57600080fd5b8063162094c41461039c5780631675f455146103bc57600080fd5b8063081812fc116102af578063081812fc14610322578063095ea7b31461035a5780630e89341c1461037c57600080fd5b806301ffc9a7146102cb57806306fdde0314610300575b600080fd5b3480156102d757600080fd5b506102eb6102e636600461214b565b61083f565b60405190151581526020015b60405180910390f35b34801561030c57600080fd5b5061031561089b565b6040516102f791906121cc565b34801561032e57600080fd5b5061034261033d3660046121df565b61092d565b6040516001600160a01b0390911681526020016102f7565b34801561036657600080fd5b5061037a610375366004612214565b610956565b005b34801561038857600080fd5b506103156103973660046121df565b610965565b3480156103a857600080fd5b5061037a6103b7366004612321565b610a07565b3480156103c857600080fd5b506103156103d73660046121df565b610b45565b3480156103e857600080fd5b506009545b6040519081526020016102f7565b34801561040757600080fd5b5061037a610416366004612368565b610bdf565b34801561042757600080fd5b5061037a610436366004612383565b610d1b565b34801561044757600080fd5b506103ed6104563660046121df565b60009081526007602052604090206001015490565b34801561047757600080fd5b5061048b6104863660046123bf565b610dd8565b604080516001600160a01b0390931683526020830191909152016102f7565b3480156104b657600080fd5b5061037a6104c53660046123e1565b610e0b565b3480156104d657600080fd5b5061037a6104e53660046123e1565b610e30565b3480156104f657600080fd5b5061037a610e7c565b34801561050b57600080fd5b5061037a61051a366004612383565b610ff3565b34801561052b57600080fd5b5061037a61053a366004612368565b61100e565b34801561054b57600080fd5b5061034261055a3660046121df565b611053565b34801561056b57600080fd5b506102eb61057a366004612368565b61105e565b34801561058b57600080fd5b506103ed600e5481565b3480156105a157600080fd5b506105aa61109e565b6040516102f7919061240d565b3480156105c357600080fd5b5061037a6105d2366004612368565b6110f5565b3480156105e357600080fd5b506103ed6105f2366004612368565b61115c565b34801561060357600080fd5b5061037a6111bd565b34801561061857600080fd5b506006546001600160a01b0316610342565b34801561063657600080fd5b506102eb6106453660046123e1565b60009182526007602090815260408084206001600160a01b0393909316845291905290205460ff1690565b61037a61067e3660046121df565b6111d1565b34801561068f57600080fd5b5061037a61069e366004612451565b611346565b3480156106af57600080fd5b50610315611384565b3480156106c457600080fd5b506103ed600081565b3480156106d957600080fd5b5061037a6106e8366004612486565b611393565b3480156106f957600080fd5b5061037a6107083660046124c2565b61139e565b34801561071957600080fd5b506103ed6107283660046121df565b6113b5565b34801561073957600080fd5b5061037a6107483660046123e1565b61149b565b34801561075957600080fd5b5061037a610768366004612214565b6114c0565b34801561077957600080fd5b50610315611534565b34801561078e57600080fd5b506102eb61079d36600461253e565b6001600160a01b03918216600090815260056020908152604080832093909416825291909152205460ff1690565b3480156107d757600080fd5b5061037a6107e6366004612368565b611543565b3480156107f757600080fd5b5061037a6108063660046121df565b611597565b34801561081757600080fd5b506103ed7f0393b4c1b6519e8b53ae0efa1ab522060a3b9f8d86d09c8a22ca6d6eea735cf781565b60007fffffffff0000000000000000000000000000000000000000000000000000000082167f2a55205a0000000000000000000000000000000000000000000000000000000014806108955750610895826115d8565b92915050565b6060600080546108aa90612568565b80601f01602080910402602001604051908101604052809291908181526020018280546108d690612568565b80156109235780601f106108f857610100808354040283529160200191610923565b820191906000526020600020905b81548152906001019060200180831161090657829003601f168201915b5050505050905090565b60006109388261162e565b506000828152600460205260409020546001600160a01b0316610895565b610961828233611680565b5050565b6000818152600d6020526040902080546060919061098290612568565b80601f01602080910402602001604051908101604052809291908181526020018280546109ae90612568565b80156109fb5780601f106109d0576101008083540402835291602001916109fb565b820191906000526020600020905b8154815290600101906020018083116109de57829003601f168201915b50505050509050919050565b7f0393b4c1b6519e8b53ae0efa1ab522060a3b9f8d86d09c8a22ca6d6eea735cf7610a318161168d565b610a39611697565b60005b600f54811015610ae45783600f8281548110610a5a57610a5a6125bb565b906000526020600020015403610adc57600f8054610a7a90600190612619565b81548110610a8a57610a8a6125bb565b9060005260206000200154600f8281548110610aa857610aa86125bb565b600091825260209091200155600f805480610ac557610ac561262c565b600190038181906000526020600020016000905590555b600101610a3c565b506000838152600d60205260409020610afd83826126ab565b50827f8e9e57f76717c62e98cc2cacc24a47ceb059955f5bfd134c59fd6bc1c04dc67783604051610b2e91906121cc565b60405180910390a2610b406001600855565b505050565b600d6020526000908152604090208054610b5e90612568565b80601f0160208091040260200160405190810160405280929190818152602001828054610b8a90612568565b8015610bd75780601f10610bac57610100808354040283529160200191610bd7565b820191906000526020600020905b815481529060010190602001808311610bba57829003601f168201915b505050505081565b7f0393b4c1b6519e8b53ae0efa1ab522060a3b9f8d86d09c8a22ca6d6eea735cf7610c098161168d565b610c11611697565b6001600160a01b038216610c86576040517f08c379a000000000000000000000000000000000000000000000000000000000815260206004820181905260248201527f43616e6e6f74206d696e7420746f20746865207a65726f20616464726573732e60448201526064015b60405180910390fd5b60098054906000610c96836127c5565b9091555050600954610ca883826116da565b600f805460018101825560009182527f8d1108e10bcb7c27dddfc02ed9d693a074039d026cf4ea4240b40f7d581ac8020182905560405182916001600160a01b038616917f7f9c9cb9137926c7f7c3bdbb971b627d14e5f95ded13be068becbd8ce81983619190a3506109616001600855565b6001600160a01b038216610d5e576040517f64a0ae9200000000000000000000000000000000000000000000000000000000815260006004820152602401610c7d565b6000610d6b838333611771565b9050836001600160a01b0316816001600160a01b031614610dd2576040517f64283d7b0000000000000000000000000000000000000000000000000000000081526001600160a01b0380861660048301526024820184905282166044820152606401610c7d565b50505050565b6000806064600c5484610deb91906127fd565b610df59190612814565b600b546001600160a01b03169590945092505050565b600082815260076020526040902060010154610e268161168d565b610dd283836118a0565b6001600160a01b0381163314610e72576040517f6697b23200000000000000000000000000000000000000000000000000000000815260040160405180910390fd5b610b40828261196c565b7f0393b4c1b6519e8b53ae0efa1ab522060a3b9f8d86d09c8a22ca6d6eea735cf7610ea68161168d565b610eae611697565b4780610f16576040517f08c379a000000000000000000000000000000000000000000000000000000000815260206004820152601960248201527f4e6f206574686572206c65667420746f207769746864726177000000000000006044820152606401610c7d565b6000610f2a6006546001600160a01b031690565b6001600160a01b03168260405160006040518083038185875af1925050503d8060008114610f74576040519150601f19603f3d011682016040523d82523d6000602084013e610f79565b606091505b5050905080610fe4576040517f08c379a000000000000000000000000000000000000000000000000000000000815260206004820152601060248201527f5472616e73666572206661696c65642e000000000000000000000000000000006044820152606401610c7d565b5050610ff06001600855565b50565b610b408383836040518060200160405280600081525061139e565b611016611a11565b61101e611697565b6110487f0393b4c1b6519e8b53ae0efa1ab522060a3b9f8d86d09c8a22ca6d6eea735cf7826118a0565b50610ff06001600855565b60006108958261162e565b6001600160a01b03811660009081527f8d5cfb28b96d7d341f0c3ff58430970fc636faea98a418faad59a72259761ef4602052604081205460ff16610895565b6060600f80548060200260200160405190810160405280929190818152602001828054801561092357602002820191906000526020600020905b8154815260200190600101908083116110d8575050505050905090565b7f0393b4c1b6519e8b53ae0efa1ab522060a3b9f8d86d09c8a22ca6d6eea735cf761111f8161168d565b611127611697565b6111517f0393b4c1b6519e8b53ae0efa1ab522060a3b9f8d86d09c8a22ca6d6eea735cf78361196c565b506109616001600855565b60006001600160a01b0382166111a1576040517f89c62b6400000000000000000000000000000000000000000000000000000000815260006004820152602401610c7d565b506001600160a01b031660009081526003602052604090205490565b6111c5611a11565b6111cf6000611a57565b565b6111d9611697565b60006111e4826113b5565b9050803414611275576040517f08c379a000000000000000000000000000000000000000000000000000000000815260206004820152603360248201527f506c65617365207375626d697420746865206578616374206d696e74696e672060448201527f66656520666f72207468652062756e646c652e000000000000000000000000006064820152608401610c7d565b336112dc576040517f08c379a000000000000000000000000000000000000000000000000000000000815260206004820181905260248201527f43616e6e6f74206d696e7420746f20746865207a65726f20616464726573732e6044820152606401610c7d565b60005b82811015610fe457600980549060006112f7836127c5565b909155505060095461130933826116da565b600f8054600181810183556000929092527f8d1108e10bcb7c27dddfc02ed9d693a074039d026cf4ea4240b40f7d581ac8020191909155016112df565b7f0393b4c1b6519e8b53ae0efa1ab522060a3b9f8d86d09c8a22ca6d6eea735cf76113708161168d565b611378611697565b600a61115183826126ab565b6060600180546108aa90612568565b610961338383611ac1565b6113a9848484610d1b565b610dd284848484611b97565b6000612710600a8390036113f957806113d06103e882612619565b84600e546113de91906127fd565b6113e891906127fd565b6113f29190612814565b9392505050565b8260190361140e57806113d06109c482612619565b8260640361142357806113d061138882612619565b826001036114395782600e546113f291906127fd565b6040517f08c379a000000000000000000000000000000000000000000000000000000000815260206004820152601060248201527f496e76616c6964207175616e74697479000000000000000000000000000000006044820152606401610c7d565b6000828152600760205260409020600101546114b68161168d565b610dd2838361196c565b7f0393b4c1b6519e8b53ae0efa1ab522060a3b9f8d86d09c8a22ca6d6eea735cf76114ea8161168d565b6114f2611697565b600b80547fffffffffffffffffffffffff0000000000000000000000000000000000000000166001600160a01b038516179055600c8290556001600855505050565b6060600a80546108aa90612568565b61154b611a11565b6001600160a01b03811661158e576040517f1e4fbdf700000000000000000000000000000000000000000000000000000000815260006004820152602401610c7d565b610ff081611a57565b7f0393b4c1b6519e8b53ae0efa1ab522060a3b9f8d86d09c8a22ca6d6eea735cf76115c18161168d565b6115c9611697565b600e8290556109616001600855565b60007fffffffff0000000000000000000000000000000000000000000000000000000082167f7965db0b000000000000000000000000000000000000000000000000000000001480610895575061089582611d5a565b6000818152600260205260408120546001600160a01b031680610895576040517f7e27328900000000000000000000000000000000000000000000000000000000815260048101849052602401610c7d565b610b408383836001611e3d565b610ff08133611f93565b6002600854036116d3576040517f3ee5aeb500000000000000000000000000000000000000000000000000000000815260040160405180910390fd5b6002600855565b6001600160a01b03821661171d576040517f64a0ae9200000000000000000000000000000000000000000000000000000000815260006004820152602401610c7d565b600061172b83836000611771565b90506001600160a01b03811615610b40576040517f73c6ac6e00000000000000000000000000000000000000000000000000000000815260006004820152602401610c7d565b6000828152600260205260408120546001600160a01b039081169083161561179e5761179e818486612001565b6001600160a01b038116156117fa576117bb600085600080611e3d565b6001600160a01b038116600090815260036020526040902080547fffffffffffffffffffffffffffffffffffffffffffffffffffffffffffffffff0190555b6001600160a01b03851615611829576001600160a01b0385166000908152600360205260409020805460010190555b60008481526002602052604080822080547fffffffffffffffffffffffff0000000000000000000000000000000000000000166001600160a01b0389811691821790925591518793918516917fddf252ad1be2c89b69c2b068fc378daa952ba7f163c4a11628f55a4df523b3ef91a4949350505050565b60008281526007602090815260408083206001600160a01b038516845290915281205460ff166119645760008381526007602090815260408083206001600160a01b0386168452909152902080547fffffffffffffffffffffffffffffffffffffffffffffffffffffffffffffff0016600117905561191c3390565b6001600160a01b0316826001600160a01b0316847f2f8788117e7eff1d82e926ec794901d17c78024a50270940304540a733656f0d60405160405180910390a4506001610895565b506000610895565b60008281526007602090815260408083206001600160a01b038516845290915281205460ff16156119645760008381526007602090815260408083206001600160a01b038616808552925280832080547fffffffffffffffffffffffffffffffffffffffffffffffffffffffffffffff0016905551339286917ff6391f5c32d9c69d2a47ea670b442974b53935d1edc7fd64eb21e047a839171b9190a4506001610895565b6006546001600160a01b031633146111cf576040517f118cdaa7000000000000000000000000000000000000000000000000000000008152336004820152602401610c7d565b600680546001600160a01b038381167fffffffffffffffffffffffff0000000000000000000000000000000000000000831681179093556040519116919082907f8be0079c531659141344cd1fd0a4f28419497f9722a3daafe3b4186f6b6457e090600090a35050565b6001600160a01b038216611b0c576040517f5b08ba180000000000000000000000000000000000000000000000000000000081526001600160a01b0383166004820152602401610c7d565b6001600160a01b0383811660008181526005602090815260408083209487168084529482529182902080547fffffffffffffffffffffffffffffffffffffffffffffffffffffffffffffff001686151590811790915591519182527f17307eab39ab6107e8899845ad3d59bd9653f200f220920489ca2b5937696c31910160405180910390a3505050565b6001600160a01b0383163b15610dd2576040517f150b7a020000000000000000000000000000000000000000000000000000000081526001600160a01b0384169063150b7a0290611bf290339088908790879060040161284f565b6020604051808303816000875af1925050508015611c4b575060408051601f3d9081017fffffffffffffffffffffffffffffffffffffffffffffffffffffffffffffffe0168201909252611c489181019061288b565b60015b611ccd573d808015611c79576040519150601f19603f3d011682016040523d82523d6000602084013e611c7e565b606091505b508051600003611cc5576040517f64a0ae920000000000000000000000000000000000000000000000000000000081526001600160a01b0385166004820152602401610c7d565b805181602001fd5b7fffffffff0000000000000000000000000000000000000000000000000000000081167f150b7a020000000000000000000000000000000000000000000000000000000014611d53576040517f64a0ae920000000000000000000000000000000000000000000000000000000081526001600160a01b0385166004820152602401610c7d565b5050505050565b60007fffffffff0000000000000000000000000000000000000000000000000000000082167f80ac58cd000000000000000000000000000000000000000000000000000000001480611ded57507fffffffff0000000000000000000000000000000000000000000000000000000082167f5b5e139f00000000000000000000000000000000000000000000000000000000145b8061089557507f01ffc9a7000000000000000000000000000000000000000000000000000000007fffffffff00000000000000000000000000000000000000000000000000000000831614610895565b8080611e5157506001600160a01b03821615155b15611f4b576000611e618461162e565b90506001600160a01b03831615801590611e8d5750826001600160a01b0316816001600160a01b031614155b8015611ebf57506001600160a01b0380821660009081526005602090815260408083209387168352929052205460ff16155b15611f01576040517fa9fbf51f0000000000000000000000000000000000000000000000000000000081526001600160a01b0384166004820152602401610c7d565b8115611f495783856001600160a01b0316826001600160a01b03167f8c5be1e5ebec7d5bd14f71427d1e84f3dd0314c0f7b2291e5b200ac8c7c3b92560405160405180910390a45b505b5050600090815260046020526040902080547fffffffffffffffffffffffff0000000000000000000000000000000000000000166001600160a01b0392909216919091179055565b60008281526007602090815260408083206001600160a01b038516845290915290205460ff16610961576040517fe2517d3f0000000000000000000000000000000000000000000000000000000081526001600160a01b038216600482015260248101839052604401610c7d565b61200c838383612097565b610b40576001600160a01b038316612053576040517f7e27328900000000000000000000000000000000000000000000000000000000815260048101829052602401610c7d565b6040517f177e802f0000000000000000000000000000000000000000000000000000000081526001600160a01b038316600482015260248101829052604401610c7d565b60006001600160a01b038316158015906121155750826001600160a01b0316846001600160a01b031614806120f157506001600160a01b0380851660009081526005602090815260408083209387168352929052205460ff165b8061211557506000828152600460205260409020546001600160a01b038481169116145b949350505050565b7fffffffff0000000000000000000000000000000000000000000000000000000081168114610ff057600080fd5b60006020828403121561215d57600080fd5b81356113f28161211d565b6000815180845260005b8181101561218e57602081850181015186830182015201612172565b5060006020828601015260207fffffffffffffffffffffffffffffffffffffffffffffffffffffffffffffffe0601f83011685010191505092915050565b6020815260006113f26020830184612168565b6000602082840312156121f157600080fd5b5035919050565b80356001600160a01b038116811461220f57600080fd5b919050565b6000806040838503121561222757600080fd5b612230836121f8565b946020939093013593505050565b7f4e487b7100000000000000000000000000000000000000000000000000000000600052604160045260246000fd5b600067ffffffffffffffff808411156122885761228861223e565b604051601f85017fffffffffffffffffffffffffffffffffffffffffffffffffffffffffffffffe0908116603f011681019082821181831017156122ce576122ce61223e565b816040528093508581528686860111156122e757600080fd5b858560208301376000602087830101525050509392505050565b600082601f83011261231257600080fd5b6113f28383356020850161226d565b6000806040838503121561233457600080fd5b82359150602083013567ffffffffffffffff81111561235257600080fd5b61235e85828601612301565b9150509250929050565b60006020828403121561237a57600080fd5b6113f2826121f8565b60008060006060848603121561239857600080fd5b6123a1846121f8565b92506123af602085016121f8565b9150604084013590509250925092565b600080604083850312156123d257600080fd5b50508035926020909101359150565b600080604083850312156123f457600080fd5b82359150612404602084016121f8565b90509250929050565b6020808252825182820181905260009190848201906040850190845b8181101561244557835183529284019291840191600101612429565b50909695505050505050565b60006020828403121561246357600080fd5b813567ffffffffffffffff81111561247a57600080fd5b61211584828501612301565b6000806040838503121561249957600080fd5b6124a2836121f8565b9150602083013580151581146124b757600080fd5b809150509250929050565b600080600080608085870312156124d857600080fd5b6124e1856121f8565b93506124ef602086016121f8565b925060408501359150606085013567ffffffffffffffff81111561251257600080fd5b8501601f8101871361252357600080fd5b6125328782356020840161226d565b91505092959194509250565b6000806040838503121561255157600080fd5b61255a836121f8565b9150612404602084016121f8565b600181811c9082168061257c57607f821691505b6020821081036125b5577f4e487b7100000000000000000000000000000000000000000000000000000000600052602260045260246000fd5b50919050565b7f4e487b7100000000000000000000000000000000000000000000000000000000600052603260045260246000fd5b7f4e487b7100000000000000000000000000000000000000000000000000000000600052601160045260246000fd5b81810381811115610895576108956125ea565b7f4e487b7100000000000000000000000000000000000000000000000000000000600052603160045260246000fd5b601f821115610b40576000816000526020600020601f850160051c810160208610156126845750805b601f850160051c820191505b818110156126a357828155600101612690565b505050505050565b815167ffffffffffffffff8111156126c5576126c561223e565b6126d9816126d38454612568565b8461265b565b602080601f83116001811461272c57600084156126f65750858301515b7fffffffffffffffffffffffffffffffffffffffffffffffffffffffffffffffff600386901b1c1916600185901b1785556126a3565b6000858152602081207fffffffffffffffffffffffffffffffffffffffffffffffffffffffffffffffe08616915b828110156127795788860151825594840194600190910190840161275a565b50858210156127b557878501517fffffffffffffffffffffffffffffffffffffffffffffffffffffffffffffffff600388901b60f8161c191681555b5050505050600190811b01905550565b60007fffffffffffffffffffffffffffffffffffffffffffffffffffffffffffffffff82036127f6576127f66125ea565b5060010190565b8082028115828204841417610895576108956125ea565b60008261284a577f4e487b7100000000000000000000000000000000000000000000000000000000600052601260045260246000fd5b500490565b60006001600160a01b038087168352808616602084015250836040830152608060608301526128816080830184612168565b9695505050505050565b60006020828403121561289d57600080fd5b81516113f28161211d56fea164736f6c6343000817000a","linkReferences":{}},"methodIdentifiers":{"AUTHORIZED_ROLE()":"f6468251","DEFAULT_ADMIN_ROLE()":"a217fddf","addAuthorizedAddress(address)":"42f1181e","airdrop(address)":"21860a05","approve(address,uint256)":"095ea7b3","balanceOf(address)":"70a08231","contractURI()":"e8a3d485","getApproved(uint256)":"081812fc","getBoardlessTokens()":"6f26d9ae","getRoleAdmin(bytes32)":"248a9ca3","getTotalPrice(uint256)":"ca7dd375","grantRole(bytes32,address)":"2f2ff15d","hasAuthorizedAddress(address)":"63759d4c","hasRole(bytes32,address)":"91d14854","isApprovedForAll(address,address)":"e985e9c5","mintNFT(uint256)":"92642744","mintPrice()":"6817c76c","name()":"06fdde03","owner()":"8da5cb5b","ownerOf(uint256)":"6352211e","removeAuthorizedAddress(address)":"70712939","renounceOwnership()":"715018a6","renounceRole(bytes32,address)":"36568abe","revokeRole(bytes32,address)":"d547741f","royaltyInfo(uint256,uint256)":"2a55205a","safeTransferFrom(address,address,uint256)":"42842e0e","safeTransferFrom(address,address,uint256,bytes)":"b88d4fde","setApprovalForAll(address,bool)":"a22cb465","setContractURI(string)":"938e3d7b","setMintPrice(uint256)":"f4a0a528","setRoyaltyInfo(address,uint256)":"e2e784d5","setTokenURI(uint256,string)":"162094c4","supportsInterface(bytes4)":"01ffc9a7","symbol()":"95d89b41","tokenURI(uint256)":"c87b56dd","tokenUri(uint256)":"1675f455","totalSupply()":"18160ddd","transferFrom(address,address,uint256)":"23b872dd","transferOwnership(address)":"f2fde38b","uri(uint256)":"0e89341c","withdraw()":"3ccfd60b"},"id":33}