{"abi":[{"type":"constructor","inputs":[],"stateMutability":"nonpayable"},{"type":"function","name":"allowance","inputs":[{"name":"owner","type":"address","internalType":"address"},{"name":"spender","type":"address","internalType":"address"}],"outputs":[{"name":"","type":"uint256","internalType":"uint256"}],"stateMutability":"view"},{"type":"function","name":"amount","inputs":[],"outputs":[{"name":"","type":"uint256","internalType":"uint256"}],"stateMutability":"view"},{"type":"function","name":"approve","inputs":[{"name":"spender","type":"address","internalType":"address"},{"name":"value","type":"uint256","internalType":"uint256"}],"outputs":[{"name":"","type":"bool","internalType":"bool"}],"stateMutability":"nonpayable"},{"type":"function","name":"balanceOf","inputs":[{"name":"account","type":"address","internalType":"address"}],"outputs":[{"name":"","type":"uint256","internalType":"uint256"}],"stateMutability":"view"},{"type":"function","name":"canFaucet","inputs":[{"name":"_address","type":"address","internalType":"address"}],"outputs":[{"name":"","type":"bool","internalType":"bool"}],"stateMutability":"view"},{"type":"function","name":"decimals","inputs":[],"outputs":[{"name":"","type":"uint8","internalType":"uint8"}],"stateMutability":"view"},{"type":"function","name":"faucet","inputs":[],"outputs":[],"stateMutability":"nonpayable"},{"type":"function","name":"lastMinted","inputs":[{"name":"","type":"address","internalType":"address"}],"outputs":[{"name":"","type":"uint256","internalType":"uint256"}],"stateMutability":"view"},{"type":"function","name":"name","inputs":[],"outputs":[{"name":"","type":"string","internalType":"string"}],"stateMutability":"view"},{"type":"function","name":"symbol","inputs":[],"outputs":[{"name":"","type":"string","internalType":"string"}],"stateMutability":"view"},{"type":"function","name":"totalSupply","inputs":[],"outputs":[{"name":"","type":"uint256","internalType":"uint256"}],"stateMutability":"view"},{"type":"function","name":"transfer","inputs":[{"name":"to","type":"address","internalType":"address"},{"name":"value","type":"uint256","internalType":"uint256"}],"outputs":[{"name":"","type":"bool","internalType":"bool"}],"stateMutability":"nonpayable"},{"type":"function","name":"transferFrom","inputs":[{"name":"from","type":"address","internalType":"address"},{"name":"to","type":"address","internalType":"address"},{"name":"value","type":"uint256","internalType":"uint256"}],"outputs":[{"name":"","type":"bool","internalType":"bool"}],"stateMutability":"nonpayable"},{"type":"event","name":"Approval","inputs":[{"name":"owner","type":"address","indexed":true,"internalType":"address"},{"name":"spender","type":"address","indexed":true,"internalType":"address"},{"name":"value","type":"uint256","indexed":false,"internalType":"uint256"}],"anonymous":false},{"type":"event","name":"Transfer","inputs":[{"name":"from","type":"address","indexed":true,"internalType":"address"},{"name":"to","type":"address","indexed":true,"internalType":"address"},{"name":"value","type":"uint256","indexed":false,"internalType":"uint256"}],"anonymous":false},{"type":"event","name":"faucetMint","inputs":[{"name":"to","type":"address","indexed":true,"internalType":"address"},{"name":"amount","type":"uint256","indexed":false,"internalType":"uint256"}],"anonymous":false},{"type":"error","name":"ERC20InsufficientAllowance","inputs":[{"name":"spender","type":"address","internalType":"address"},{"name":"allowance","type":"uint256","internalType":"uint256"},{"name":"needed","type":"uint256","internalType":"uint256"}]},{"type":"error","name":"ERC20InsufficientBalance","inputs":[{"name":"sender","type":"address","internalType":"address"},{"name":"balance","type":"uint256","internalType":"uint256"},{"name":"needed","type":"uint256","internalType":"uint256"}]},{"type":"error","name":"ERC20InvalidApprover","inputs":[{"name":"approver","type":"address","internalType":"address"}]},{"type":"error","name":"ERC20InvalidReceiver","inputs":[{"name":"receiver","type":"address","internalType":"address"}]},{"type":"error","name":"ERC20InvalidSender","inputs":[{"name":"sender","type":"address","internalType":"address"}]},{"type":"error","name":"ERC20InvalidSpender","inputs":[{"name":"spender","type":"address","internalType":"address"}]}],"bytecode":{"object":"0x60806040523480156200001157600080fd5b506040518060400160405280600a8152602001692aa9a22a102a37b5b2b760b11b815250604051806040016040528060048152602001631554d11560e21b8152508160039081620000639190620002ce565b506004620000728282620002ce565b506200007f915050600690565b6200008c90600a620004af565b6200009a90612710620004c7565b6005819055620000ac903390620000b2565b620004f7565b6001600160a01b038216620000e25760405163ec442f0560e01b8152600060048201526024015b60405180910390fd5b620000f060008383620000f4565b5050565b6001600160a01b03831662000123578060026000828254620001179190620004e1565b90915550620001979050565b6001600160a01b03831660009081526020819052604090205481811015620001785760405163391434e360e21b81526001600160a01b03851660048201526024810182905260448101839052606401620000d9565b6001600160a01b03841660009081526020819052604090209082900390555b6001600160a01b038216620001b557600280548290039055620001d4565b6001600160a01b03821660009081526020819052604090208054820190555b816001600160a01b0316836001600160a01b03167fddf252ad1be2c89b69c2b068fc378daa952ba7f163c4a11628f55a4df523b3ef836040516200021a91815260200190565b60405180910390a3505050565b634e487b7160e01b600052604160045260246000fd5b600181811c908216806200025257607f821691505b6020821081036200027357634e487b7160e01b600052602260045260246000fd5b50919050565b601f821115620002c9576000816000526020600020601f850160051c81016020861015620002a45750805b601f850160051c820191505b81811015620002c557828155600101620002b0565b5050505b505050565b81516001600160401b03811115620002ea57620002ea62000227565b6200030281620002fb84546200023d565b8462000279565b602080601f8311600181146200033a5760008415620003215750858301515b600019600386901b1c1916600185901b178555620002c5565b600085815260208120601f198616915b828110156200036b578886015182559484019460019091019084016200034a565b50858210156200038a5787850151600019600388901b60f8161c191681555b5050505050600190811b01905550565b634e487b7160e01b600052601160045260246000fd5b600181815b80851115620003f1578160001904821115620003d557620003d56200039a565b80851615620003e357918102915b93841c9390800290620003b5565b509250929050565b6000826200040a57506001620004a9565b816200041957506000620004a9565b81600181146200043257600281146200043d576200045d565b6001915050620004a9565b60ff8411156200045157620004516200039a565b50506001821b620004a9565b5060208310610133831016604e8410600b841016171562000482575081810a620004a9565b6200048e8383620003b0565b8060001904821115620004a557620004a56200039a565b0290505b92915050565b6000620004c060ff841683620003f9565b9392505050565b8082028115828204841417620004a957620004a96200039a565b80820180821115620004a957620004a96200039a565b610b3a80620005076000396000f3fe608060405234801561001057600080fd5b50600436106100df5760003560e01c806370a082311161008c578063aa8c217c11610066578063aa8c217c146101ca578063dd62ed3e146101d5578063de5f72fd1461021b578063ee39f8731461022557600080fd5b806370a082311461017957806395d89b41146101af578063a9059cbb146101b757600080fd5b806323b872dd116100bd57806323b872dd146101375780632e686d691461014a578063313ce5671461016a57600080fd5b806306fdde03146100e4578063095ea7b31461010257806318160ddd14610125575b600080fd5b6100ec610238565b6040516100f9919061094f565b60405180910390f35b6101156101103660046109e5565b6102ca565b60405190151581526020016100f9565b6002545b6040519081526020016100f9565b610115610145366004610a0f565b6102e4565b610129610158366004610a4b565b60066020526000908152604090205481565b604051600681526020016100f9565b610129610187366004610a4b565b73ffffffffffffffffffffffffffffffffffffffff1660009081526020819052604090205490565b6100ec610308565b6101156101c53660046109e5565b610317565b6101296305f5e10081565b6101296101e3366004610a6d565b73ffffffffffffffffffffffffffffffffffffffff918216600090815260016020908152604080832093909416825291909152205490565b610223610325565b005b610115610233366004610a4b565b610436565b60606003805461024790610aa0565b80601f016020809104026020016040519081016040528092919081815260200182805461027390610aa0565b80156102c05780601f10610295576101008083540402835291602001916102c0565b820191906000526020600020905b8154815290600101906020018083116102a357829003601f168201915b5050505050905090565b6000336102d8818585610470565b60019150505b92915050565b6000336102f2858285610482565b6102fd858585610551565b506001949350505050565b60606004805461024790610aa0565b6000336102d8818585610551565b3360009081526006602052604090205442906103449062015180610af3565b106103d6576040517f08c379a000000000000000000000000000000000000000000000000000000000815260206004820152602660248201527f4661756365742063616e206f6e6c792062652075736564206f6e63652065766560448201527f727920646179000000000000000000000000000000000000000000000000000060648201526084015b60405180910390fd5b6103e4336305f5e1006105fc565b3360008181526006602052604090819020429055517fa5c512741b3ca2884144df8eab59d4217cd36925444bd242e77e6c1fbfc553cf9061042c906305f5e100815260200190565b60405180910390a2565b73ffffffffffffffffffffffffffffffffffffffff81166000908152600660205260408120544290610469906001610af3565b1092915050565b61047d838383600161065c565b505050565b73ffffffffffffffffffffffffffffffffffffffff8381166000908152600160209081526040808320938616835292905220547fffffffffffffffffffffffffffffffffffffffffffffffffffffffffffffffff811461054b578181101561053c576040517ffb8f41b200000000000000000000000000000000000000000000000000000000815273ffffffffffffffffffffffffffffffffffffffff8416600482015260248101829052604481018390526064016103cd565b61054b8484848403600061065c565b50505050565b73ffffffffffffffffffffffffffffffffffffffff83166105a1576040517f96c6fd1e000000000000000000000000000000000000000000000000000000008152600060048201526024016103cd565b73ffffffffffffffffffffffffffffffffffffffff82166105f1576040517fec442f05000000000000000000000000000000000000000000000000000000008152600060048201526024016103cd565b61047d8383836107a4565b73ffffffffffffffffffffffffffffffffffffffff821661064c576040517fec442f05000000000000000000000000000000000000000000000000000000008152600060048201526024016103cd565b610658600083836107a4565b5050565b73ffffffffffffffffffffffffffffffffffffffff84166106ac576040517fe602df05000000000000000000000000000000000000000000000000000000008152600060048201526024016103cd565b73ffffffffffffffffffffffffffffffffffffffff83166106fc576040517f94280d62000000000000000000000000000000000000000000000000000000008152600060048201526024016103cd565b73ffffffffffffffffffffffffffffffffffffffff8085166000908152600160209081526040808320938716835292905220829055801561054b578273ffffffffffffffffffffffffffffffffffffffff168473ffffffffffffffffffffffffffffffffffffffff167f8c5be1e5ebec7d5bd14f71427d1e84f3dd0314c0f7b2291e5b200ac8c7c3b9258460405161079691815260200190565b60405180910390a350505050565b73ffffffffffffffffffffffffffffffffffffffff83166107dc5780600260008282546107d19190610af3565b9091555061088e9050565b73ffffffffffffffffffffffffffffffffffffffff831660009081526020819052604090205481811015610862576040517fe450d38c00000000000000000000000000000000000000000000000000000000815273ffffffffffffffffffffffffffffffffffffffff8516600482015260248101829052604481018390526064016103cd565b73ffffffffffffffffffffffffffffffffffffffff841660009081526020819052604090209082900390555b73ffffffffffffffffffffffffffffffffffffffff82166108b7576002805482900390556108e3565b73ffffffffffffffffffffffffffffffffffffffff821660009081526020819052604090208054820190555b8173ffffffffffffffffffffffffffffffffffffffff168373ffffffffffffffffffffffffffffffffffffffff167fddf252ad1be2c89b69c2b068fc378daa952ba7f163c4a11628f55a4df523b3ef8360405161094291815260200190565b60405180910390a3505050565b60006020808352835180602085015260005b8181101561097d57858101830151858201604001528201610961565b5060006040828601015260407fffffffffffffffffffffffffffffffffffffffffffffffffffffffffffffffe0601f8301168501019250505092915050565b803573ffffffffffffffffffffffffffffffffffffffff811681146109e057600080fd5b919050565b600080604083850312156109f857600080fd5b610a01836109bc565b946020939093013593505050565b600080600060608486031215610a2457600080fd5b610a2d846109bc565b9250610a3b602085016109bc565b9150604084013590509250925092565b600060208284031215610a5d57600080fd5b610a66826109bc565b9392505050565b60008060408385031215610a8057600080fd5b610a89836109bc565b9150610a97602084016109bc565b90509250929050565b600181811c90821680610ab457607f821691505b602082108103610aed577f4e487b7100000000000000000000000000000000000000000000000000000000600052602260045260246000fd5b50919050565b808201808211156102de577f4e487b7100000000000000000000000000000000000000000000000000000000600052601160045260246000fdfea164736f6c6343000817000a","linkReferences":{}},"methodIdentifiers":{"allowance(address,address)":"dd62ed3e","amount()":"aa8c217c","approve(address,uint256)":"095ea7b3","balanceOf(address)":"70a08231","canFaucet(address)":"ee39f873","decimals()":"313ce567","faucet()":"de5f72fd","lastMinted(address)":"2e686d69","name()":"06fdde03","symbol()":"95d89b41","totalSupply()":"18160ddd","transfer(address,uint256)":"a9059cbb","transferFrom(address,address,uint256)":"23b872dd"},"id":52}